{
  "_format": "hh-sol-artifact-1",
  "contractName": "PokemonCard",
  "sourceName": "contracts/PokemonCard.sol",
  "abi": [
    {
      "inputs": [],
      "stateMutability": "nonpayable",
      "type": "constructor"
    },
    {
      "inputs": [],
      "name": "ERC721EnumerableForbiddenBatchMint",
      "type": "error"
    },
    {
      "inputs": [
        {
          "internalType": "address",
          "name": "sender",
          "type": "address"
        },
        {
          "internalType": "uint256",
          "name": "tokenId",
          "type": "uint256"
        },
        {
          "internalType": "address",
          "name": "owner",
          "type": "address"
        }
      ],
      "name": "ERC721IncorrectOwner",
      "type": "error"
    },
    {
      "inputs": [
        {
          "internalType": "address",
          "name": "operator",
          "type": "address"
        },
        {
          "internalType": "uint256",
          "name": "tokenId",
          "type": "uint256"
        }
      ],
      "name": "ERC721InsufficientApproval",
      "type": "error"
    },
    {
      "inputs": [
        {
          "internalType": "address",
          "name": "approver",
          "type": "address"
        }
      ],
      "name": "ERC721InvalidApprover",
      "type": "error"
    },
    {
      "inputs": [
        {
          "internalType": "address",
          "name": "operator",
          "type": "address"
        }
      ],
      "name": "ERC721InvalidOperator",
      "type": "error"
    },
    {
      "inputs": [
        {
          "internalType": "address",
          "name": "owner",
          "type": "address"
        }
      ],
      "name": "ERC721InvalidOwner",
      "type": "error"
    },
    {
      "inputs": [
        {
          "internalType": "address",
          "name": "receiver",
          "type": "address"
        }
      ],
      "name": "ERC721InvalidReceiver",
      "type": "error"
    },
    {
      "inputs": [
        {
          "internalType": "address",
          "name": "sender",
          "type": "address"
        }
      ],
      "name": "ERC721InvalidSender",
      "type": "error"
    },
    {
      "inputs": [
        {
          "internalType": "uint256",
          "name": "tokenId",
          "type": "uint256"
        }
      ],
      "name": "ERC721NonexistentToken",
      "type": "error"
    },
    {
      "inputs": [
        {
          "internalType": "address",
          "name": "owner",
          "type": "address"
        },
        {
          "internalType": "uint256",
          "name": "index",
          "type": "uint256"
        }
      ],
      "name": "ERC721OutOfBoundsIndex",
      "type": "error"
    },
    {
      "inputs": [
        {
          "internalType": "address",
          "name": "owner",
          "type": "address"
        }
      ],
      "name": "OwnableInvalidOwner",
      "type": "error"
    },
    {
      "inputs": [
        {
          "internalType": "address",
          "name": "account",
          "type": "address"
        }
      ],
      "name": "OwnableUnauthorizedAccount",
      "type": "error"
    },
    {
      "anonymous": false,
      "inputs": [
        {
          "indexed": true,
          "internalType": "address",
          "name": "owner",
          "type": "address"
        },
        {
          "indexed": true,
          "internalType": "address",
          "name": "approved",
          "type": "address"
        },
        {
          "indexed": true,
          "internalType": "uint256",
          "name": "tokenId",
          "type": "uint256"
        }
      ],
      "name": "Approval",
      "type": "event"
    },
    {
      "anonymous": false,
      "inputs": [
        {
          "indexed": true,
          "internalType": "address",
          "name": "owner",
          "type": "address"
        },
        {
          "indexed": true,
          "internalType": "address",
          "name": "operator",
          "type": "address"
        },
        {
          "indexed": false,
          "internalType": "bool",
          "name": "approved",
          "type": "bool"
        }
      ],
      "name": "ApprovalForAll",
      "type": "event"
    },
    {
      "anonymous": false,
      "inputs": [
        {
          "indexed": false,
          "internalType": "uint256",
          "name": "_fromTokenId",
          "type": "uint256"
        },
        {
          "indexed": false,
          "internalType": "uint256",
          "name": "_toTokenId",
          "type": "uint256"
        }
      ],
      "name": "BatchMetadataUpdate",
      "type": "event"
    },
    {
      "anonymous": false,
      "inputs": [
        {
          "indexed": false,
          "internalType": "uint256",
          "name": "_tokenId",
          "type": "uint256"
        }
      ],
      "name": "MetadataUpdate",
      "type": "event"
    },
    {
      "anonymous": false,
      "inputs": [
        {
          "indexed": true,
          "internalType": "address",
          "name": "previousOwner",
          "type": "address"
        },
        {
          "indexed": true,
          "internalType": "address",
          "name": "newOwner",
          "type": "address"
        }
      ],
      "name": "OwnershipTransferred",
      "type": "event"
    },
    {
      "anonymous": false,
      "inputs": [
        {
          "indexed": true,
          "internalType": "address",
          "name": "burner",
          "type": "address"
        },
        {
          "indexed": true,
          "internalType": "uint256",
          "name": "tokenId",
          "type": "uint256"
        },
        {
          "indexed": false,
          "internalType": "string",
          "name": "name",
          "type": "string"
        }
      ],
      "name": "PokemonBurned",
      "type": "event"
    },
    {
      "anonymous": false,
      "inputs": [
        {
          "indexed": true,
          "internalType": "address",
          "name": "to",
          "type": "address"
        },
        {
          "indexed": true,
          "internalType": "uint256",
          "name": "tokenId",
          "type": "uint256"
        },
        {
          "indexed": false,
          "internalType": "string",
          "name": "name",
          "type": "string"
        },
        {
          "indexed": false,
          "internalType": "string",
          "name": "pokemonType",
          "type": "string"
        }
      ],
      "name": "PokemonMinted",
      "type": "event"
    },
    {
      "anonymous": false,
      "inputs": [
        {
          "indexed": true,
          "internalType": "address",
          "name": "from",
          "type": "address"
        },
        {
          "indexed": true,
          "internalType": "address",
          "name": "to",
          "type": "address"
        },
        {
          "indexed": true,
          "internalType": "uint256",
          "name": "tokenId",
          "type": "uint256"
        }
      ],
      "name": "Transfer",
      "type": "event"
    },
    {
      "inputs": [
        {
          "internalType": "address",
          "name": "to",
          "type": "address"
        },
        {
          "internalType": "uint256",
          "name": "tokenId",
          "type": "uint256"
        }
      ],
      "name": "approve",
      "outputs": [],
      "stateMutability": "nonpayable",
      "type": "function"
    },
    {
      "inputs": [
        {
          "internalType": "address",
          "name": "owner",
          "type": "address"
        }
      ],
      "name": "balanceOf",
      "outputs": [
        {
          "internalType": "uint256",
          "name": "",
          "type": "uint256"
        }
      ],
      "stateMutability": "view",
      "type": "function"
    },
    {
      "inputs": [
        {
          "internalType": "uint256[]",
          "name": "tokenIds",
          "type": "uint256[]"
        }
      ],
      "name": "batchGetPokemonDetails",
      "outputs": [
        {
          "components": [
            {
              "internalType": "string",
              "name": "name",
              "type": "string"
            },
            {
              "internalType": "uint8",
              "name": "generation",
              "type": "uint8"
            },
            {
              "internalType": "string",
              "name": "pokemonType",
              "type": "string"
            },
            {
              "internalType": "uint16",
              "name": "power",
              "type": "uint16"
            },
            {
              "internalType": "uint8",
              "name": "rarity",
              "type": "uint8"
            },
            {
              "internalType": "bool",
              "name": "isShiny",
              "type": "bool"
            }
          ],
          "internalType": "struct PokemonCard.Pokemon[]",
          "name": "",
          "type": "tuple[]"
        }
      ],
      "stateMutability": "view",
      "type": "function"
    },
    {
      "inputs": [
        {
          "internalType": "uint256",
          "name": "tokenId",
          "type": "uint256"
        }
      ],
      "name": "burnPokemon",
      "outputs": [],
      "stateMutability": "nonpayable",
      "type": "function"
    },
    {
      "inputs": [
        {
          "internalType": "address",
          "name": "owner",
          "type": "address"
        }
      ],
      "name": "getAllPokemonByOwner",
      "outputs": [
        {
          "internalType": "uint256[]",
          "name": "",
          "type": "uint256[]"
        },
        {
          "components": [
            {
              "internalType": "string",
              "name": "name",
              "type": "string"
            },
            {
              "internalType": "uint8",
              "name": "generation",
              "type": "uint8"
            },
            {
              "internalType": "string",
              "name": "pokemonType",
              "type": "string"
            },
            {
              "internalType": "uint16",
              "name": "power",
              "type": "uint16"
            },
            {
              "internalType": "uint8",
              "name": "rarity",
              "type": "uint8"
            },
            {
              "internalType": "bool",
              "name": "isShiny",
              "type": "bool"
            }
          ],
          "internalType": "struct PokemonCard.Pokemon[]",
          "name": "",
          "type": "tuple[]"
        }
      ],
      "stateMutability": "view",
      "type": "function"
    },
    {
      "inputs": [
        {
          "internalType": "uint256",
          "name": "tokenId",
          "type": "uint256"
        }
      ],
      "name": "getApproved",
      "outputs": [
        {
          "internalType": "address",
          "name": "",
          "type": "address"
        }
      ],
      "stateMutability": "view",
      "type": "function"
    },
    {
      "inputs": [
        {
          "internalType": "uint256",
          "name": "tokenId",
          "type": "uint256"
        }
      ],
      "name": "getPokemonDetails",
      "outputs": [
        {
          "components": [
            {
              "internalType": "string",
              "name": "name",
              "type": "string"
            },
            {
              "internalType": "uint8",
              "name": "generation",
              "type": "uint8"
            },
            {
              "internalType": "string",
              "name": "pokemonType",
              "type": "string"
            },
            {
              "internalType": "uint16",
              "name": "power",
              "type": "uint16"
            },
            {
              "internalType": "uint8",
              "name": "rarity",
              "type": "uint8"
            },
            {
              "internalType": "bool",
              "name": "isShiny",
              "type": "bool"
            }
          ],
          "internalType": "struct PokemonCard.Pokemon",
          "name": "",
          "type": "tuple"
        }
      ],
      "stateMutability": "view",
      "type": "function"
    },
    {
      "inputs": [
        {
          "internalType": "uint256",
          "name": "offset",
          "type": "uint256"
        },
        {
          "internalType": "uint256",
          "name": "limit",
          "type": "uint256"
        }
      ],
      "name": "getPokemonPage",
      "outputs": [
        {
          "internalType": "uint256[]",
          "name": "tokenIds",
          "type": "uint256[]"
        },
        {
          "internalType": "address[]",
          "name": "owners",
          "type": "address[]"
        },
        {
          "components": [
            {
              "internalType": "string",
              "name": "name",
              "type": "string"
            },
            {
              "internalType": "uint8",
              "name": "generation",
              "type": "uint8"
            },
            {
              "internalType": "string",
              "name": "pokemonType",
              "type": "string"
            },
            {
              "internalType": "uint16",
              "name": "power",
              "type": "uint16"
            },
            {
              "internalType": "uint8",
              "name": "rarity",
              "type": "uint8"
            },
            {
              "internalType": "bool",
              "name": "isShiny",
              "type": "bool"
            }
          ],
          "internalType": "struct PokemonCard.Pokemon[]",
          "name": "details",
          "type": "tuple[]"
        }
      ],
      "stateMutability": "view",
      "type": "function"
    },
    {
      "inputs": [],
      "name": "getTotalMinted",
      "outputs": [
        {
          "internalType": "uint256",
          "name": "",
          "type": "uint256"
        }
      ],
      "stateMutability": "view",
      "type": "function"
    },
    {
      "inputs": [
        {
          "internalType": "address",
          "name": "owner",
          "type": "address"
        },
        {
          "internalType": "address",
          "name": "operator",
          "type": "address"
        }
      ],
      "name": "isApprovedForAll",
      "outputs": [
        {
          "internalType": "bool",
          "name": "",
          "type": "bool"
        }
      ],
      "stateMutability": "view",
      "type": "function"
    },
    {
      "inputs": [
        {
          "internalType": "address",
          "name": "to",
          "type": "address"
        },
        {
          "internalType": "string",
          "name": "name",
          "type": "string"
        },
        {
          "internalType": "uint8",
          "name": "generation",
          "type": "uint8"
        },
        {
          "internalType": "string",
          "name": "pokemonType",
          "type": "string"
        },
        {
          "internalType": "uint16",
          "name": "power",
          "type": "uint16"
        },
        {
          "internalType": "uint8",
          "name": "rarity",
          "type": "uint8"
        },
        {
          "internalType": "bool",
          "name": "isShiny",
          "type": "bool"
        },
        {
          "internalType": "string",
          "name": "ipfsMetadataURI",
          "type": "string"
        }
      ],
      "name": "mintPokemon",
      "outputs": [
        {
          "internalType": "uint256",
          "name": "",
          "type": "uint256"
        }
      ],
      "stateMutability": "nonpayable",
      "type": "function"
    },
    {
      "inputs": [],
      "name": "name",
      "outputs": [
        {
          "internalType": "string",
          "name": "",
          "type": "string"
        }
      ],
      "stateMutability": "view",
      "type": "function"
    },
    {
      "inputs": [],
      "name": "owner",
      "outputs": [
        {
          "internalType": "address",
          "name": "",
          "type": "address"
        }
      ],
      "stateMutability": "view",
      "type": "function"
    },
    {
      "inputs": [
        {
          "internalType": "uint256",
          "name": "tokenId",
          "type": "uint256"
        }
      ],
      "name": "ownerOf",
      "outputs": [
        {
          "internalType": "address",
          "name": "",
          "type": "address"
        }
      ],
      "stateMutability": "view",
      "type": "function"
    },
    {
      "inputs": [
        {
          "internalType": "uint256",
          "name": "",
          "type": "uint256"
        }
      ],
      "name": "pokemonData",
      "outputs": [
        {
          "internalType": "string",
          "name": "name",
          "type": "string"
        },
        {
          "internalType": "uint8",
          "name": "generation",
          "type": "uint8"
        },
        {
          "internalType": "string",
          "name": "pokemonType",
          "type": "string"
        },
        {
          "internalType": "uint16",
          "name": "power",
          "type": "uint16"
        },
        {
          "internalType": "uint8",
          "name": "rarity",
          "type": "uint8"
        },
        {
          "internalType": "bool",
          "name": "isShiny",
          "type": "bool"
        }
      ],
      "stateMutability": "view",
      "type": "function"
    },
    {
      "inputs": [],
      "name": "renounceOwnership",
      "outputs": [],
      "stateMutability": "nonpayable",
      "type": "function"
    },
    {
      "inputs": [
        {
          "internalType": "address",
          "name": "from",
          "type": "address"
        },
        {
          "internalType": "address",
          "name": "to",
          "type": "address"
        },
        {
          "internalType": "uint256",
          "name": "tokenId",
          "type": "uint256"
        }
      ],
      "name": "safeTransferFrom",
      "outputs": [],
      "stateMutability": "nonpayable",
      "type": "function"
    },
    {
      "inputs": [
        {
          "internalType": "address",
          "name": "from",
          "type": "address"
        },
        {
          "internalType": "address",
          "name": "to",
          "type": "address"
        },
        {
          "internalType": "uint256",
          "name": "tokenId",
          "type": "uint256"
        },
        {
          "internalType": "bytes",
          "name": "data",
          "type": "bytes"
        }
      ],
      "name": "safeTransferFrom",
      "outputs": [],
      "stateMutability": "nonpayable",
      "type": "function"
    },
    {
      "inputs": [
        {
          "internalType": "address",
          "name": "operator",
          "type": "address"
        },
        {
          "internalType": "bool",
          "name": "approved",
          "type": "bool"
        }
      ],
      "name": "setApprovalForAll",
      "outputs": [],
      "stateMutability": "nonpayable",
      "type": "function"
    },
    {
      "inputs": [
        {
          "internalType": "bytes4",
          "name": "interfaceId",
          "type": "bytes4"
        }
      ],
      "name": "supportsInterface",
      "outputs": [
        {
          "internalType": "bool",
          "name": "",
          "type": "bool"
        }
      ],
      "stateMutability": "view",
      "type": "function"
    },
    {
      "inputs": [],
      "name": "symbol",
      "outputs": [
        {
          "internalType": "string",
          "name": "",
          "type": "string"
        }
      ],
      "stateMutability": "view",
      "type": "function"
    },
    {
      "inputs": [
        {
          "internalType": "uint256",
          "name": "index",
          "type": "uint256"
        }
      ],
      "name": "tokenByIndex",
      "outputs": [
        {
          "internalType": "uint256",
          "name": "",
          "type": "uint256"
        }
      ],
      "stateMutability": "view",
      "type": "function"
    },
    {
      "inputs": [
        {
          "internalType": "address",
          "name": "owner",
          "type": "address"
        },
        {
          "internalType": "uint256",
          "name": "index",
          "type": "uint256"
        }
      ],
      "name": "tokenOfOwnerByIndex",
      "outputs": [
        {
          "internalType": "uint256",
          "name": "",
          "type": "uint256"
        }
      ],
      "stateMutability": "view",
      "type": "function"
    },
    {
      "inputs": [
        {
          "internalType": "uint256",
          "name": "tokenId",
          "type": "uint256"
        }
      ],
      "name": "tokenURI",
      "outputs": [
        {
          "internalType": "string",
          "name": "",
          "type": "string"
        }
      ],
      "stateMutability": "view",
      "type": "function"
    },
    {
      "inputs": [],
      "name": "totalSupply",
      "outputs": [
        {
          "internalType": "uint256",
          "name": "",
          "type": "uint256"
        }
      ],
      "stateMutability": "view",
      "type": "function"
    },
    {
      "inputs": [
        {
          "internalType": "address",
          "name": "from",
          "type": "address"
        },
        {
          "internalType": "address",
          "name": "to",
          "type": "address"
        },
        {
          "internalType": "uint256",
          "name": "tokenId",
          "type": "uint256"
        }
      ],
      "name": "transferFrom",
      "outputs": [],
      "stateMutability": "nonpayable",
      "type": "function"
    },
    {
      "inputs": [
        {
          "internalType": "address",
          "name": "newOwner",
          "type": "address"
        }
      ],
      "name": "transferOwnership",
      "outputs": [],
      "stateMutability": "nonpayable",
      "type": "function"
    }
  ],
  "bytecode": "0x60806040523461038857604080519081016001600160401b03811182821017610295576040908152600b82526a141bdad95b5bdb90d85c9960aa1b602083015280519081016001600160401b038111828210176102955760405260048152632825a6a760e11b602082015281516001600160401b03811161029557600054600181811c9116801561037e575b602082101461027557601f811161031a575b50602092601f82116001146102b657928192936000926102ab575b50508160011b916000199060031b1c1916176000555b80516001600160401b03811161029557600154600181811c9116801561028b575b602082101461027557601f8111610210575b50602091601f82116001146101ac579181926000926101a1575b50508160011b916000199060031b1c1916176001555b331561018b57600b8054336001600160a01b03198216811790925560405191906001600160a01b03167f8be0079c531659141344cd1fd0a4f28419497f9722a3daafe3b4186f6b6457e0600080a36125d9908161038e8239f35b631e4fbdf760e01b600052600060045260246000fd5b01519050388061011b565b601f198216926001600052806000209160005b8581106101f8575083600195106101df575b505050811b01600155610131565b015160001960f88460031b161c191690553880806101d1565b919260206001819286850151815501940192016101bf565b60016000527fb10e2d527612073b26eecdfd717e6a320cf44b4afac2b0732d9fcbe2b7fa0cf6601f830160051c8101916020841061026b575b601f0160051c01905b81811061025f5750610101565b60008155600101610252565b9091508190610249565b634e487b7160e01b600052602260045260246000fd5b90607f16906100ef565b634e487b7160e01b600052604160045260246000fd5b0151905038806100b8565b601f1982169360008052806000209160005b86811061030257508360019596106102e9575b505050811b016000556100ce565b015160001960f88460031b161c191690553880806102db565b919260206001819286850151815501940192016102c8565b600080527f290decd9548b62a8d60345a988386fc84ba6bc95484008f6362f93160ef3e563601f830160051c81019160208410610374575b601f0160051c01905b818110610368575061009d565b6000815560010161035b565b9091508190610352565b90607f169061008b565b600080fdfe608080604052600436101561001357600080fd5b60003560e01c90816301ffc9a7146119085750806306fdde0314611863578063081812fc14611825578063095ea7b3146117365780630ca1c5c91461171857806318160ddd146116fa578063191d2ebd146115f457806323b872dd146115dd578063288e5c2e146115545780632f745c591461152d57806342842e0e146114fd5780634f6ccce7146114df5780636352211e146114af57806370a0823114611484578063715018a6146114275780637a5032f7146112ff5780638da5cb5b146112d657806390be451a14610fc557806395d89b4114610ef8578063a22cb46514610e57578063a79864021461041b578063b88d4fde146103ae578063c1b2c1ae14610316578063c87b56dd146102e3578063d79521e814610232578063e985e9c5146101d75763f2fde38b1461014857600080fd5b346101d25760203660031901126101d2576101616119e6565b6101696123dc565b6001600160a01b031680156101bc57600b80546001600160a01b0319811683179091556001600160a01b03167f8be0079c531659141344cd1fd0a4f28419497f9722a3daafe3b4186f6b6457e0600080a3005b631e4fbdf760e01b600052600060045260246000fd5b600080fd5b346101d25760403660031901126101d2576101f06119e6565b6101f86119fc565b9060018060a01b0316600052600560205260406000209060018060a01b0316600052602052602060ff604060002054166040519015158152f35b346101d25760203660031901126101d25760043561024e611d0b565b5061026061025b82612405565b6122e7565b600052600d6020526102df604060002060ff60036040519261028184611b38565b61028a81611c1e565b84528260018201541660208501526102a460028201611c1e565b6040850152015461ffff81166060840152818160101c16608084015260181c16151560a0820152604051918291602083526020830190611a46565b0390f35b346101d25760203660031901126101d2576102df610302600435612570565b6040519182916020835260208301906119a7565b346101d25760203660031901126101d257600435600052600d602052610376604060002061034381611c1e565b9060ff61038981600184015416600361035e60028601611c1e565b9401549360405196879660c0885260c08801906119a7565b91602087015285820360408701526119a7565b9161ffff81166060850152818160101c16608085015260181c16151560a08301520390f35b346101d25760803660031901126101d2576103c76119e6565b6103cf6119fc565b90604435606435926001600160401b0384116101d257366023850112156101d257610407610419943690602481600401359101611b8f565b92610413838383611db8565b33612433565b005b346101d2576101003660031901126101d2576104356119e6565b6024356001600160401b0381116101d257610454903690600401611bc6565b60443560ff81168091036101d2576064356001600160401b0381116101d257610481903690600401611bc6565b926084359361ffff85168095036101d25760a4359460ff86168096036101d25760c435958615158097036101d25760e4356001600160401b0381116101d2576104ce903690600401611bc6565b966104d76123dc565b865115610e125785151580610e07575b15610dcd57835115610d885781151580610d7d575b15610d3857875115610cf357600c54956000198714610cdd5760018701600c556040519061052982611b38565b888252602082019081526040820190868252606083019586526080830194855260a0830193845288600052600d602052604060002092518051906001600160401b0382116109175761057b8554611be4565b601f8111610cab575b50602090601f8311600114610c44576105b6929160009183610c39575b50508160011b916000199060031b1c19161790565b83555b60ff6001840191511660ff198254161790556002820190518051906001600160401b038211610917576105ec8354611be4565b601f8111610c07575b50602090601f8311600114610b9a578261ffff95936003959361062e93600092610b8f5750508160011b916000199060031b1c19161790565b90555b0193511663ff00000062ff00008554945160101b169251151560181b169263ffffffff1916171717905560209460405161066b8782611b53565b600081526001600160a01b038416938415610b795760008681526002895260408120546001600160a01b031680158015929083610b45575b88825260038c526040808320805460010190558a835260028d52822080546001600160a01b0319168a1790558989847fddf252ad1be2c89b69c2b068fc378daa952ba7f163c4a11628f55a4df523b3ef8580a415610acc57600954898252600a8c52806040832055600160401b811015610ab8578961072b8260016107449401600955612250565b90919082549060031b91821b91600019901b1916179055565b878203610a68575b5050610a52573b61092d575b5083600052600686526040600020908051906001600160401b038211610917576107828354611be4565b601f81116108dc575b508790601f831160011461084a5793610827936107e784899a95610834957fc0ca6965454d29b3856647a7702778be706433923b1119a5dc89950b41a882439960009261083f5750508160011b916000199060031b1c19161790565b90555b7ff8e1a15aba9398e019f0b49df1a4fde98ee17ae345cb5f6b5e2c27f5033e8ce789604051898152a16040519384936040855260408501906119a7565b908382038a8501526119a7565b0390a3604051908152f35b015190508d806105a1565b90601f1983169184600052896000209260005b8b8282106108c657505084610834947fc0ca6965454d29b3856647a7702778be706433923b1119a5dc89950b41a88243989461082798948c9d98600195106108ad575b505050811b0190556107ea565b015160001960f88460031b161c191690558c80806108a0565b600185968293968601518155019501930161085d565b610907908460005289600020601f850160051c8101918b861061090d575b601f0160051c019061233f565b8861078b565b90915081906108fa565b634e487b7160e01b600052604160045260246000fd5b8661096c91604098979695985180938192630a85bd0160e11b8352336004840152600060248401528860448401526080606484015260848301906119a7565b038160008b5af18091600091610a0d575b50906109d45786863d156109cd573d61099581611b74565b906109a36040519283611b53565b81523d60008383013e5b805191826109ca5783633250574960e11b60005260045260246000fd5b01fd5b60606109ad565b949593949293926001600160e01b03191663757a42ff60e11b016109f85786610758565b82633250574960e11b60005260045260246000fd5b8781813d8311610a4b575b610a228183611b53565b81010312610a475751906001600160e01b031982168203610a4457508861097d565b80fd5b5080fd5b503d610a18565b6339e3563760e11b600052600060045260246000fd5b610a71846122a1565b600019810191908211610aa45780896040925260078d528181208382528d528a828220558a815260088d5220558a61074c565b634e487b7160e01b81526011600452602490fd5b634e487b7160e01b82526041600452602482fd5b81881461074457610adc826122a1565b89825260088c5260408220549083835260078d5260408320918d828203610b1c575b50508a835260088d5282604081205582528b52806040812055610744565b600890838652848152604086205483875285825280604088205586525260408420558d8d610afe565b60008a815260046020526040902080546001600160a01b031916905582825260038c526040822080546000190190556106a3565b633250574960e11b600052600060045260246000fd5b015190508f806105a1565b90601f1983169184600052816000209260005b818110610bef575092600192859261ffff98966003989610610bd7575b505050811b019055610631565b015160001983881b60f8161c191690558e8080610bca565b92936020600181928786015181550195019301610bad565b610c3390846000526020600020601f850160051c8101916020861061090d57601f0160051c019061233f565b8c6105f5565b015190508e806105a1565b90601f1983169186600052816000209260005b818110610c935750908460019594939210610c7a575b505050811b0183556105b9565b015160001960f88460031b161c191690558d8080610c6d565b92936020600181928786015181550195019301610c57565b610cd790866000526020600020601f850160051c8101916020861061090d57601f0160051c019061233f565b8d610584565b634e487b7160e01b600052601160045260246000fd5b60405162461bcd60e51b815260206004820152601860248201527f49504653205552492063616e6e6f7420626520656d70747900000000000000006044820152606490fd5b60405162461bcd60e51b815260206004820152601e60248201527f526172697479206d757374206265206265747765656e203120616e64203500006044820152606490fd5b5060058211156104fc565b60405162461bcd60e51b815260206004820152601c60248201527f506f6b656d6f6e20747970652063616e6e6f7420626520656d707479000000006044820152606490fd5b60405162461bcd60e51b815260206004820152601260248201527124b73b30b634b21033b2b732b930ba34b7b760711b6044820152606490fd5b5060098611156104e7565b60405162461bcd60e51b815260206004820152601c60248201527f506f6b656d6f6e206e616d652063616e6e6f7420626520656d707479000000006044820152606490fd5b346101d25760403660031901126101d257610e706119e6565b602435908115158092036101d2576001600160a01b0316908115610ee357336000526005602052604060002082600052602052604060002060ff1981541660ff83161790556040519081527f17307eab39ab6107e8899845ad3d59bd9653f200f220920489ca2b5937696c3160203392a3005b50630b61174360e31b60005260045260246000fd5b346101d25760003660031901126101d2576040516000600154610f1a81611be4565b8084529060018116908115610fa15750600114610f42575b6102df8361030281850382611b53565b600160009081527fb10e2d527612073b26eecdfd717e6a320cf44b4afac2b0732d9fcbe2b7fa0cf6939250905b808210610f8757509091508101602001610302610f32565b919260018160209254838588010152019101909291610f6f565b60ff191660208086019190915291151560051b840190910191506103029050610f32565b346101d25760203660031901126101d257600435610fe2816123a5565b336001600160a01b039091160361127f5780600052600d6020526110096040600020611c1e565b81600052600d602052600060036040822061102381612356565b82600182015561103560028201612356565b01556000828152600260205260408120546001600160a01b031680159182158061124a575b85825260026020526040822080546001600160a01b03191690558582847fddf252ad1be2c89b69c2b068fc378daa952ba7f163c4a11628f55a4df523b3ef8280a483156111cf5750600954858252600a602052806040832055600160401b811015610ab8578561072b8260016110d39401600955612250565b60095460001981019081116111bb57858252600a6020526110f8604083205491612250565b90549060031b1c61110c8161072b84612250565b8252600a6020526040822055848152600a6020528060408120556009549081156111a757506000190161113e81612250565b8154906000199060031b1b1916905560095550611192577fdba8507c2b5f928f82a319cd87fa96ae77afa9d7e43ed21494a2dfab1529db46604051602081528061118d339460208301906119a7565b0390a3005b50637e27328960e01b60005260045260246000fd5b634e487b7160e01b81526031600452602490fd5b634e487b7160e01b82526011600452602482fd5b156110d3576111dd826122a1565b85825260086020526040822054908383526007602052604083209181810361121f575b50868352600860205282604081205582526020528060408120556110d3565b8184528260205260408420548185528360205280604086205584526008602052604084205587611200565b600086815260046020526040902080546001600160a01b0319169055828252600360205260408220805460001901905561105a565b60405162461bcd60e51b815260206004820152602960248201527f506f6b656d6f6e436172643a2063616c6c6572206973206e6f74206f776e65726044820152681037b91030b236b4b760b91b6064820152608490fd5b346101d25760003660031901126101d257600b546040516001600160a01b039091168152602090f35b346101d25760203660031901126101d2576004356001600160401b0381116101d257366023820112156101d2578060040135906001600160401b0382116101d2576024810190602436918460051b0101116101d25761135d82611d3e565b9160005b81811061137e57604051602080825281906102df90820187611aa5565b8061139861025b61139260019486886122d7565b35612405565b6113a38184866122d7565b35600052600d602052604060002060ff6003604051926113c284611b38565b6113cb81611c1e565b845282868201541660208501526113e460028201611c1e565b6040850152015461ffff81166060840152818160101c16608084015260181c16151560a08201526114158287611d8e565b526114208186611d8e565b5001611361565b346101d25760003660031901126101d2576114406123dc565b600b80546001600160a01b031981169091556000906001600160a01b03167f8be0079c531659141344cd1fd0a4f28419497f9722a3daafe3b4186f6b6457e08280a3005b346101d25760203660031901126101d25760206114a76114a26119e6565b6122a1565b604051908152f35b346101d25760203660031901126101d25760206114cd6004356123a5565b6040516001600160a01b039091168152f35b346101d25760203660031901126101d25760206114a760043561226b565b346101d25761041961150e36611afe565b906040519261151e602085611b53565b60008452610413838383611db8565b346101d25760403660031901126101d25760206114a761154b6119e6565b602435906121fc565b346101d25760403660031901126101d257611573602435600435612067565b61158b60409392935192606084526060840190611a12565b82810360208401526020808551928381520194019060005b8181106115be5784806102df88878382036040850152611aa5565b82516001600160a01b03168652602095860195909201916001016115a3565b346101d2576104196115ee36611afe565b91611db8565b346101d25760203660031901126101d25761160d6119e6565b611616816122a1565b61161f81611cd9565b9061162981611d3e565b9260005b82811061165e57611650846102df87604051938493604085526040850190611a12565b908382036020850152611aa5565b8061166b600192846121fc565b806116768388611d8e565b52600052600d602052604060002060ff60036040519261169584611b38565b61169e81611c1e565b845282868201541660208501526116b760028201611c1e565b6040850152015461ffff81166060840152818160101c16608084015260181c16151560a08201526116e88288611d8e565b526116f38187611d8e565b500161162d565b346101d25760003660031901126101d2576020600954604051908152f35b346101d25760003660031901126101d2576020600c54604051908152f35b346101d25760403660031901126101d25761174f6119e6565b60243561175b816123a5565b33151580611812575b806117e4575b6117cf5781906001600160a01b0384811691167f8c5be1e5ebec7d5bd14f71427d1e84f3dd0314c0f7b2291e5b200ac8c7c3b925600080a4600090815260046020526040902080546001600160a01b0319166001600160a01b03909216919091179055005b63a9fbf51f60e01b6000523360045260246000fd5b506001600160a01b038116600090815260056020908152604080832033845290915290205460ff161561176a565b506001600160a01b038116331415611764565b346101d25760203660031901126101d257600435611842816123a5565b506000526004602052602060018060a01b0360406000205416604051908152f35b346101d25760003660031901126101d2576040516000805461188481611be4565b8084529060018116908115610fa157506001146118ab576102df8361030281850382611b53565b60008080527f290decd9548b62a8d60345a988386fc84ba6bc95484008f6362f93160ef3e563939250905b8082106118ee57509091508101602001610302610f32565b9192600181602092548385880101520191019092916118d6565b346101d25760203660031901126101d2576004359063ffffffff60e01b82168092036101d25760209163780e9d6360e01b811490811561194a575b5015158152f35b632483248360e11b811491508115611964575b5083611943565b6380ac58cd60e01b811491508115611996575b8115611985575b508361195d565b6301ffc9a760e01b1490508361197e565b635b5e139f60e01b81149150611977565b919082518082526020808301940160005b8281106119d6575050600081602094950152601f8019910116010190565b81810151868201526020016119b8565b600435906001600160a01b03821682036101d257565b602435906001600160a01b03821682036101d257565b906020808351928381520192019060005b818110611a305750505090565b8251845260209384019390920191600101611a23565b9060a080611a7f611a60855160c0865260c08601906119a7565b60ff6020870151166020860152604086015185820360408701526119a7565b9361ffff606082015116606085015260ff60808201511660808501520151151591015290565b9080602083519182815201916020808360051b8301019401926000915b838310611ad157505050505090565b9091929394602080611aef600193601f198682030187528951611a46565b97019301930191939290611ac2565b60609060031901126101d2576004356001600160a01b03811681036101d257906024356001600160a01b03811681036101d2579060443590565b60c081019081106001600160401b0382111761091757604052565b90601f801991011681019081106001600160401b0382111761091757604052565b6001600160401b03811161091757601f01601f191660200190565b929192611b9b82611b74565b91611ba96040519384611b53565b8294818452818301116101d2578281602093846000960137010152565b9080601f830112156101d257816020611be193359101611b8f565b90565b90600182811c92168015611c14575b6020831014611bfe57565b634e487b7160e01b600052602260045260246000fd5b91607f1691611bf3565b9060405191826000825492611c3284611be4565b8084529360018116908115611ca05750600114611c59575b50611c5792500383611b53565b565b90506000929192526020600020906000915b818310611c84575050906020611c579282010138611c4a565b6020919350806001915483858901015201910190918492611c6b565b905060209250611c5794915060ff191682840152151560051b82010138611c4a565b6001600160401b0381116109175760051b60200190565b90611ce382611cc2565b611cf06040519182611b53565b8281528092611d01601f1991611cc2565b0190602036910137565b60405190611d1882611b38565b600060a08360608152826020820152606060408201528260608201528260808201520152565b90611d4882611cc2565b611d556040519182611b53565b8281528092611d66601f1991611cc2565b019060005b828110611d7757505050565b602090611d82611d0b565b82828501015201611d6b565b8051821015611da25760209160051b010190565b634e487b7160e01b600052603260045260246000fd5b9091906001600160a01b0383168015610b79576000838152600260205260408120546001600160a01b03169433151580611fcb575b5085158015611f96575b83835260036020526040832060018154019055858352600260205260408320846bffffffffffffffffffffffff60a01b8254161790558584887fddf252ad1be2c89b69c2b068fc378daa952ba7f163c4a11628f55a4df523b3ef8680a415611f1957600954858352600a602052806040842055600160401b811015611f05578561072b826001611e8a9401600955612250565b828603611ec4575b5050506001600160a01b0316808303611eaa57505050565b6364283d7b60e01b60005260045260245260445260646000fd5b611ecd906122a1565b6000198101929083116111bb579060409181526007602052818120838252602052848282205584815260086020522055388080611e92565b634e487b7160e01b83526041600452602483fd5b858314611e8a57611f29866122a1565b858352600860205260408320549087845260076020526040842091818103611f6b575b5086845260086020528360408120558352602052816040812055611e8a565b8185528260205260408520548186528360205280604087205585526008602052604085205538611f4c565b600086815260046020526040902080546001600160a01b03191690558683526003602052604083208054600019019055611df7565b8061200b575b15611fdc5738611ded565b848287611ff557602491637e27328960e01b8252600452fd5b60449163177e802f60e01b825233600452602452fd5b503386148015612039575b80611fd15750848252600460205260408220546001600160a01b03163314611fd1565b5085825260056020908152604080842033855290915282205460ff16612016565b91908201809211610cdd57565b90600954908183101561218a578161207f828561205a565b11156121825750818103908111610cdd57915b61209b83611cd9565b6120a484611cd9565b936120ae81611d3e565b9360005b8281106120c157505050929190565b806120d66120d16001938561205a565b61226b565b806120e18388611d8e565b526120eb816123a5565b6120f5838b611d8e565b90848060a01b03169052600052600d602052604060002060ff60036040519261211d84611b38565b61212681611c1e565b8452828682015416602085015261213f60028201611c1e565b6040850152015461ffff81166060840152818160101c16608084015260181c16151560a08201526121708289611d8e565b5261217b8188611d8e565b50016120b2565b905091612092565b50505060206040519161219d8284611b53565b600083526000368137604051926121b48385611b53565b6000845260003681376040519260006121cd8286611b53565b8452601f19810160005b8181106121e657505050929190565b82906121f0611d0b565b828289010152016121d7565b612205816122a1565b8210156122315760018060a01b0316600052600760205260406000209060005260205260406000205490565b63295f44f760e21b60005260018060a01b031660045260245260446000fd5b600954811015611da257600960005260206000200190600090565b6009548110156122885761227e90612250565b90549060031b1c90565b63295f44f760e21b600052600060045260245260446000fd5b6001600160a01b031680156122c157600052600360205260406000205490565b6322718ad960e21b600052600060045260246000fd5b9190811015611da25760051b0190565b156122ee57565b60405162461bcd60e51b8152602060048201526024808201527f506f6b656d6f6e3a20717565727920666f72206e6f6e6578697374656e74207460448201526337b5b2b760e11b6064820152608490fd5b81811061234a575050565b6000815560010161233f565b6123608154611be4565b908161236a575050565b81601f6000931160011461237c575055565b8183526020832061239891601f0160051c81019060010161233f565b8082528160208120915555565b6000818152600260205260409020546001600160a01b03169081156123c8575090565b637e27328960e01b60005260045260246000fd5b600b546001600160a01b031633036123f057565b63118cdaa760e01b6000523360045260246000fd5b600c5481109081612414575090565b6000908152600260205260409020546001600160a01b03161515919050565b823b612441575b5050505050565b604051630a85bd0160e11b81526001600160a01b03918216600482015291811660248301526044820193909352608060648201529116916020908290819061248d9060848301906119a7565b03816000865af1809160009161252d575b50906124f757503d156124f0573d6124b581611b74565b906124c36040519283611b53565b81523d6000602083013e5b805190816124eb5782633250574960e11b60005260045260246000fd5b602001fd5b60606124ce565b6001600160e01b03191663757a42ff60e11b016125195750388080808061243a565b633250574960e11b60005260045260246000fd5b6020813d602011612568575b8161254660209383611b53565b81010312610a475751906001600160e01b031982168203610a4457503861249e565b3d9150612539565b612579816123a5565b50600052600660205261258f6040600020611c1e565b600060405161259f602082611b53565b529056fea264697066735822122063e45334cb4484540c73b9982e253dbda05290ea4793391ea7bf704c498339b164736f6c634300081c0033",
  "linkReferences": {},
  "deployedLinkReferences": {}
}