{
  "_format": "hh-sol-artifact-1",
  "contractName": "PokemonCard",
  "sourceName": "contracts/PokemonCard.sol",
  "abi": [
    {
      "inputs": [],
      "stateMutability": "nonpayable",
      "type": "constructor"
    },
    {
      "inputs": [],
      "name": "ERC721EnumerableForbiddenBatchMint",
      "type": "error"
    },
    {
      "inputs": [
        {
          "internalType": "address",
          "name": "sender",
          "type": "address"
        },
        {
          "internalType": "uint256",
          "name": "tokenId",
          "type": "uint256"
        },
        {
          "internalType": "address",
          "name": "owner",
          "type": "address"
        }
      ],
      "name": "ERC721IncorrectOwner",
      "type": "error"
    },
    {
      "inputs": [
        {
          "internalType": "address",
          "name": "operator",
          "type": "address"
        },
        {
          "internalType": "uint256",
          "name": "tokenId",
          "type": "uint256"
        }
      ],
      "name": "ERC721InsufficientApproval",
      "type": "error"
    },
    {
      "inputs": [
        {
          "internalType": "address",
          "name": "approver",
          "type": "address"
        }
      ],
      "name": "ERC721InvalidApprover",
      "type": "error"
    },
    {
      "inputs": [
        {
          "internalType": "address",
          "name": "operator",
          "type": "address"
        }
      ],
      "name": "ERC721InvalidOperator",
      "type": "error"
    },
    {
      "inputs": [
        {
          "internalType": "address",
          "name": "owner",
          "type": "address"
        }
      ],
      "name": "ERC721InvalidOwner",
      "type": "error"
    },
    {
      "inputs": [
        {
          "internalType": "address",
          "name": "receiver",
          "type": "address"
        }
      ],
      "name": "ERC721InvalidReceiver",
      "type": "error"
    },
    {
      "inputs": [
        {
          "internalType": "address",
          "name": "sender",
          "type": "address"
        }
      ],
      "name": "ERC721InvalidSender",
      "type": "error"
    },
    {
      "inputs": [
        {
          "internalType": "uint256",
          "name": "tokenId",
          "type": "uint256"
        }
      ],
      "name": "ERC721NonexistentToken",
      "type": "error"
    },
    {
      "inputs": [
        {
          "internalType": "address",
          "name": "owner",
          "type": "address"
        },
        {
          "internalType": "uint256",
          "name": "index",
          "type": "uint256"
        }
      ],
      "name": "ERC721OutOfBoundsIndex",
      "type": "error"
    },
    {
      "inputs": [
        {
          "internalType": "address",
          "name": "owner",
          "type": "address"
        }
      ],
      "name": "OwnableInvalidOwner",
      "type": "error"
    },
    {
      "inputs": [
        {
          "internalType": "address",
          "name": "account",
          "type": "address"
        }
      ],
      "name": "OwnableUnauthorizedAccount",
      "type": "error"
    },
    {
      "anonymous": false,
      "inputs": [
        {
          "indexed": true,
          "internalType": "address",
          "name": "owner",
          "type": "address"
        },
        {
          "indexed": true,
          "internalType": "address",
          "name": "approved",
          "type": "address"
        },
        {
          "indexed": true,
          "internalType": "uint256",
          "name": "tokenId",
          "type": "uint256"
        }
      ],
      "name": "Approval",
      "type": "event"
    },
    {
      "anonymous": false,
      "inputs": [
        {
          "indexed": true,
          "internalType": "address",
          "name": "owner",
          "type": "address"
        },
        {
          "indexed": true,
          "internalType": "address",
          "name": "operator",
          "type": "address"
        },
        {
          "indexed": false,
          "internalType": "bool",
          "name": "approved",
          "type": "bool"
        }
      ],
      "name": "ApprovalForAll",
      "type": "event"
    },
    {
      "anonymous": false,
      "inputs": [
        {
          "indexed": false,
          "internalType": "uint256",
          "name": "_fromTokenId",
          "type": "uint256"
        },
        {
          "indexed": false,
          "internalType": "uint256",
          "name": "_toTokenId",
          "type": "uint256"
        }
      ],
      "name": "BatchMetadataUpdate",
      "type": "event"
    },
    {
      "anonymous": false,
      "inputs": [
        {
          "indexed": false,
          "internalType": "uint256",
          "name": "_tokenId",
          "type": "uint256"
        }
      ],
      "name": "MetadataUpdate",
      "type": "event"
    },
    {
      "anonymous": false,
      "inputs": [
        {
          "indexed": true,
          "internalType": "address",
          "name": "previousOwner",
          "type": "address"
        },
        {
          "indexed": true,
          "internalType": "address",
          "name": "newOwner",
          "type": "address"
        }
      ],
      "name": "OwnershipTransferred",
      "type": "event"
    },
    {
      "anonymous": false,
      "inputs": [
        {
          "indexed": true,
          "internalType": "address",
          "name": "to",
          "type": "address"
        },
        {
          "indexed": true,
          "internalType": "uint256",
          "name": "tokenId",
          "type": "uint256"
        },
        {
          "indexed": false,
          "internalType": "string",
          "name": "name",
          "type": "string"
        },
        {
          "indexed": false,
          "internalType": "string",
          "name": "pokemonType",
          "type": "string"
        }
      ],
      "name": "PokemonMinted",
      "type": "event"
    },
    {
      "anonymous": false,
      "inputs": [
        {
          "indexed": true,
          "internalType": "address",
          "name": "from",
          "type": "address"
        },
        {
          "indexed": true,
          "internalType": "address",
          "name": "to",
          "type": "address"
        },
        {
          "indexed": true,
          "internalType": "uint256",
          "name": "tokenId",
          "type": "uint256"
        }
      ],
      "name": "Transfer",
      "type": "event"
    },
    {
      "inputs": [
        {
          "internalType": "address",
          "name": "to",
          "type": "address"
        },
        {
          "internalType": "uint256",
          "name": "tokenId",
          "type": "uint256"
        }
      ],
      "name": "approve",
      "outputs": [],
      "stateMutability": "nonpayable",
      "type": "function"
    },
    {
      "inputs": [
        {
          "internalType": "address",
          "name": "owner",
          "type": "address"
        }
      ],
      "name": "balanceOf",
      "outputs": [
        {
          "internalType": "uint256",
          "name": "",
          "type": "uint256"
        }
      ],
      "stateMutability": "view",
      "type": "function"
    },
    {
      "inputs": [
        {
          "internalType": "uint256[]",
          "name": "tokenIds",
          "type": "uint256[]"
        }
      ],
      "name": "batchGetPokemonDetails",
      "outputs": [
        {
          "components": [
            {
              "internalType": "string",
              "name": "name",
              "type": "string"
            },
            {
              "internalType": "uint8",
              "name": "generation",
              "type": "uint8"
            },
            {
              "internalType": "string",
              "name": "pokemonType",
              "type": "string"
            },
            {
              "internalType": "uint16",
              "name": "power",
              "type": "uint16"
            },
            {
              "internalType": "uint8",
              "name": "rarity",
              "type": "uint8"
            },
            {
              "internalType": "bool",
              "name": "isShiny",
              "type": "bool"
            }
          ],
          "internalType": "struct PokemonCard.Pokemon[]",
          "name": "",
          "type": "tuple[]"
        }
      ],
      "stateMutability": "view",
      "type": "function"
    },
    {
      "inputs": [
        {
          "internalType": "address",
          "name": "owner",
          "type": "address"
        }
      ],
      "name": "getAllPokemonByOwner",
      "outputs": [
        {
          "internalType": "uint256[]",
          "name": "",
          "type": "uint256[]"
        },
        {
          "components": [
            {
              "internalType": "string",
              "name": "name",
              "type": "string"
            },
            {
              "internalType": "uint8",
              "name": "generation",
              "type": "uint8"
            },
            {
              "internalType": "string",
              "name": "pokemonType",
              "type": "string"
            },
            {
              "internalType": "uint16",
              "name": "power",
              "type": "uint16"
            },
            {
              "internalType": "uint8",
              "name": "rarity",
              "type": "uint8"
            },
            {
              "internalType": "bool",
              "name": "isShiny",
              "type": "bool"
            }
          ],
          "internalType": "struct PokemonCard.Pokemon[]",
          "name": "",
          "type": "tuple[]"
        }
      ],
      "stateMutability": "view",
      "type": "function"
    },
    {
      "inputs": [
        {
          "internalType": "uint256",
          "name": "tokenId",
          "type": "uint256"
        }
      ],
      "name": "getApproved",
      "outputs": [
        {
          "internalType": "address",
          "name": "",
          "type": "address"
        }
      ],
      "stateMutability": "view",
      "type": "function"
    },
    {
      "inputs": [
        {
          "internalType": "uint256",
          "name": "tokenId",
          "type": "uint256"
        }
      ],
      "name": "getPokemonDetails",
      "outputs": [
        {
          "components": [
            {
              "internalType": "string",
              "name": "name",
              "type": "string"
            },
            {
              "internalType": "uint8",
              "name": "generation",
              "type": "uint8"
            },
            {
              "internalType": "string",
              "name": "pokemonType",
              "type": "string"
            },
            {
              "internalType": "uint16",
              "name": "power",
              "type": "uint16"
            },
            {
              "internalType": "uint8",
              "name": "rarity",
              "type": "uint8"
            },
            {
              "internalType": "bool",
              "name": "isShiny",
              "type": "bool"
            }
          ],
          "internalType": "struct PokemonCard.Pokemon",
          "name": "",
          "type": "tuple"
        }
      ],
      "stateMutability": "view",
      "type": "function"
    },
    {
      "inputs": [
        {
          "internalType": "uint256",
          "name": "offset",
          "type": "uint256"
        },
        {
          "internalType": "uint256",
          "name": "limit",
          "type": "uint256"
        }
      ],
      "name": "getPokemonPage",
      "outputs": [
        {
          "internalType": "uint256[]",
          "name": "tokenIds",
          "type": "uint256[]"
        },
        {
          "internalType": "address[]",
          "name": "owners",
          "type": "address[]"
        },
        {
          "components": [
            {
              "internalType": "string",
              "name": "name",
              "type": "string"
            },
            {
              "internalType": "uint8",
              "name": "generation",
              "type": "uint8"
            },
            {
              "internalType": "string",
              "name": "pokemonType",
              "type": "string"
            },
            {
              "internalType": "uint16",
              "name": "power",
              "type": "uint16"
            },
            {
              "internalType": "uint8",
              "name": "rarity",
              "type": "uint8"
            },
            {
              "internalType": "bool",
              "name": "isShiny",
              "type": "bool"
            }
          ],
          "internalType": "struct PokemonCard.Pokemon[]",
          "name": "details",
          "type": "tuple[]"
        }
      ],
      "stateMutability": "view",
      "type": "function"
    },
    {
      "inputs": [],
      "name": "getTotalMinted",
      "outputs": [
        {
          "internalType": "uint256",
          "name": "",
          "type": "uint256"
        }
      ],
      "stateMutability": "view",
      "type": "function"
    },
    {
      "inputs": [
        {
          "internalType": "address",
          "name": "owner",
          "type": "address"
        },
        {
          "internalType": "address",
          "name": "operator",
          "type": "address"
        }
      ],
      "name": "isApprovedForAll",
      "outputs": [
        {
          "internalType": "bool",
          "name": "",
          "type": "bool"
        }
      ],
      "stateMutability": "view",
      "type": "function"
    },
    {
      "inputs": [
        {
          "internalType": "address",
          "name": "to",
          "type": "address"
        },
        {
          "internalType": "string",
          "name": "name",
          "type": "string"
        },
        {
          "internalType": "uint8",
          "name": "generation",
          "type": "uint8"
        },
        {
          "internalType": "string",
          "name": "pokemonType",
          "type": "string"
        },
        {
          "internalType": "uint16",
          "name": "power",
          "type": "uint16"
        },
        {
          "internalType": "uint8",
          "name": "rarity",
          "type": "uint8"
        },
        {
          "internalType": "bool",
          "name": "isShiny",
          "type": "bool"
        },
        {
          "internalType": "string",
          "name": "ipfsMetadataURI",
          "type": "string"
        }
      ],
      "name": "mintPokemon",
      "outputs": [
        {
          "internalType": "uint256",
          "name": "",
          "type": "uint256"
        }
      ],
      "stateMutability": "nonpayable",
      "type": "function"
    },
    {
      "inputs": [],
      "name": "name",
      "outputs": [
        {
          "internalType": "string",
          "name": "",
          "type": "string"
        }
      ],
      "stateMutability": "view",
      "type": "function"
    },
    {
      "inputs": [],
      "name": "owner",
      "outputs": [
        {
          "internalType": "address",
          "name": "",
          "type": "address"
        }
      ],
      "stateMutability": "view",
      "type": "function"
    },
    {
      "inputs": [
        {
          "internalType": "uint256",
          "name": "tokenId",
          "type": "uint256"
        }
      ],
      "name": "ownerOf",
      "outputs": [
        {
          "internalType": "address",
          "name": "",
          "type": "address"
        }
      ],
      "stateMutability": "view",
      "type": "function"
    },
    {
      "inputs": [
        {
          "internalType": "uint256",
          "name": "",
          "type": "uint256"
        }
      ],
      "name": "pokemonData",
      "outputs": [
        {
          "internalType": "string",
          "name": "name",
          "type": "string"
        },
        {
          "internalType": "uint8",
          "name": "generation",
          "type": "uint8"
        },
        {
          "internalType": "string",
          "name": "pokemonType",
          "type": "string"
        },
        {
          "internalType": "uint16",
          "name": "power",
          "type": "uint16"
        },
        {
          "internalType": "uint8",
          "name": "rarity",
          "type": "uint8"
        },
        {
          "internalType": "bool",
          "name": "isShiny",
          "type": "bool"
        }
      ],
      "stateMutability": "view",
      "type": "function"
    },
    {
      "inputs": [],
      "name": "renounceOwnership",
      "outputs": [],
      "stateMutability": "nonpayable",
      "type": "function"
    },
    {
      "inputs": [
        {
          "internalType": "address",
          "name": "from",
          "type": "address"
        },
        {
          "internalType": "address",
          "name": "to",
          "type": "address"
        },
        {
          "internalType": "uint256",
          "name": "tokenId",
          "type": "uint256"
        }
      ],
      "name": "safeTransferFrom",
      "outputs": [],
      "stateMutability": "nonpayable",
      "type": "function"
    },
    {
      "inputs": [
        {
          "internalType": "address",
          "name": "from",
          "type": "address"
        },
        {
          "internalType": "address",
          "name": "to",
          "type": "address"
        },
        {
          "internalType": "uint256",
          "name": "tokenId",
          "type": "uint256"
        },
        {
          "internalType": "bytes",
          "name": "data",
          "type": "bytes"
        }
      ],
      "name": "safeTransferFrom",
      "outputs": [],
      "stateMutability": "nonpayable",
      "type": "function"
    },
    {
      "inputs": [
        {
          "internalType": "address",
          "name": "operator",
          "type": "address"
        },
        {
          "internalType": "bool",
          "name": "approved",
          "type": "bool"
        }
      ],
      "name": "setApprovalForAll",
      "outputs": [],
      "stateMutability": "nonpayable",
      "type": "function"
    },
    {
      "inputs": [
        {
          "internalType": "bytes4",
          "name": "interfaceId",
          "type": "bytes4"
        }
      ],
      "name": "supportsInterface",
      "outputs": [
        {
          "internalType": "bool",
          "name": "",
          "type": "bool"
        }
      ],
      "stateMutability": "view",
      "type": "function"
    },
    {
      "inputs": [],
      "name": "symbol",
      "outputs": [
        {
          "internalType": "string",
          "name": "",
          "type": "string"
        }
      ],
      "stateMutability": "view",
      "type": "function"
    },
    {
      "inputs": [
        {
          "internalType": "uint256",
          "name": "index",
          "type": "uint256"
        }
      ],
      "name": "tokenByIndex",
      "outputs": [
        {
          "internalType": "uint256",
          "name": "",
          "type": "uint256"
        }
      ],
      "stateMutability": "view",
      "type": "function"
    },
    {
      "inputs": [
        {
          "internalType": "address",
          "name": "owner",
          "type": "address"
        },
        {
          "internalType": "uint256",
          "name": "index",
          "type": "uint256"
        }
      ],
      "name": "tokenOfOwnerByIndex",
      "outputs": [
        {
          "internalType": "uint256",
          "name": "",
          "type": "uint256"
        }
      ],
      "stateMutability": "view",
      "type": "function"
    },
    {
      "inputs": [
        {
          "internalType": "uint256",
          "name": "tokenId",
          "type": "uint256"
        }
      ],
      "name": "tokenURI",
      "outputs": [
        {
          "internalType": "string",
          "name": "",
          "type": "string"
        }
      ],
      "stateMutability": "view",
      "type": "function"
    },
    {
      "inputs": [],
      "name": "totalSupply",
      "outputs": [
        {
          "internalType": "uint256",
          "name": "",
          "type": "uint256"
        }
      ],
      "stateMutability": "view",
      "type": "function"
    },
    {
      "inputs": [
        {
          "internalType": "address",
          "name": "from",
          "type": "address"
        },
        {
          "internalType": "address",
          "name": "to",
          "type": "address"
        },
        {
          "internalType": "uint256",
          "name": "tokenId",
          "type": "uint256"
        }
      ],
      "name": "transferFrom",
      "outputs": [],
      "stateMutability": "nonpayable",
      "type": "function"
    },
    {
      "inputs": [
        {
          "internalType": "address",
          "name": "newOwner",
          "type": "address"
        }
      ],
      "name": "transferOwnership",
      "outputs": [],
      "stateMutability": "nonpayable",
      "type": "function"
    }
  ],
  "bytecode": "0x60806040523461038857604080519081016001600160401b03811182821017610295576040908152600b82526a141bdad95b5bdb90d85c9960aa1b602083015280519081016001600160401b038111828210176102955760405260048152632825a6a760e11b602082015281516001600160401b03811161029557600054600181811c9116801561037e575b602082101461027557601f811161031a575b50602092601f82116001146102b657928192936000926102ab575b50508160011b916000199060031b1c1916176000555b80516001600160401b03811161029557600154600181811c9116801561028b575b602082101461027557601f8111610210575b50602091601f82116001146101ac579181926000926101a1575b50508160011b916000199060031b1c1916176001555b331561018b57600b8054336001600160a01b03198216811790925560405191906001600160a01b03167f8be0079c531659141344cd1fd0a4f28419497f9722a3daafe3b4186f6b6457e0600080a3612299908161038e8239f35b631e4fbdf760e01b600052600060045260246000fd5b01519050388061011b565b601f198216926001600052806000209160005b8581106101f8575083600195106101df575b505050811b01600155610131565b015160001960f88460031b161c191690553880806101d1565b919260206001819286850151815501940192016101bf565b60016000527fb10e2d527612073b26eecdfd717e6a320cf44b4afac2b0732d9fcbe2b7fa0cf6601f830160051c8101916020841061026b575b601f0160051c01905b81811061025f5750610101565b60008155600101610252565b9091508190610249565b634e487b7160e01b600052602260045260246000fd5b90607f16906100ef565b634e487b7160e01b600052604160045260246000fd5b0151905038806100b8565b601f1982169360008052806000209160005b86811061030257508360019596106102e9575b505050811b016000556100ce565b015160001960f88460031b161c191690553880806102db565b919260206001819286850151815501940192016102c8565b600080527f290decd9548b62a8d60345a988386fc84ba6bc95484008f6362f93160ef3e563601f830160051c81019160208410610374575b601f0160051c01905b818110610368575061009d565b6000815560010161035b565b9091508190610352565b90607f169061008b565b600080fdfe608080604052600436101561001357600080fd5b60003560e01c90816301ffc9a71461161a5750806306fdde0314611575578063081812fc14611537578063095ea7b3146114485780630ca1c5c91461142a57806318160ddd1461140c578063191d2ebd1461130657806323b872dd146112ef578063288e5c2e146112665780632f745c591461123f57806342842e0e1461120f5780634f6ccce7146111f15780636352211e146111c157806370a0823114611196578063715018a6146111395780637a5032f7146110115780638da5cb5b14610fe857806395d89b4114610f1b578063a22cb46514610e7a578063a798640214610410578063b88d4fde146103a3578063c1b2c1ae1461030b578063c87b56dd146102d8578063d79521e814610227578063e985e9c5146101cc5763f2fde38b1461013d57600080fd5b346101c75760203660031901126101c7576101566116f8565b61015e61209c565b6001600160a01b031680156101b157600b80546001600160a01b0319811683179091556001600160a01b03167f8be0079c531659141344cd1fd0a4f28419497f9722a3daafe3b4186f6b6457e0600080a3005b631e4fbdf760e01b600052600060045260246000fd5b600080fd5b346101c75760403660031901126101c7576101e56116f8565b6101ed61170e565b9060018060a01b0316600052600560205260406000209060018060a01b0316600052602052602060ff604060002054166040519015158152f35b346101c75760203660031901126101c757600435610243611a1d565b50610255610250826120c5565b61200d565b600052600d6020526102d4604060002060ff6003604051926102768461184a565b61027f81611930565b845282600182015416602085015261029960028201611930565b6040850152015461ffff81166060840152818160101c16608084015260181c16151560a0820152604051918291602083526020830190611758565b0390f35b346101c75760203660031901126101c7576102d46102f7600435612230565b6040519182916020835260208301906116b9565b346101c75760203660031901126101c757600435600052600d60205261036b604060002061033881611930565b9060ff61037e81600184015416600361035360028601611930565b9401549360405196879660c0885260c08801906116b9565b91602087015285820360408701526116b9565b9161ffff81166060850152818160101c16608085015260181c16151560a08301520390f35b346101c75760803660031901126101c7576103bc6116f8565b6103c461170e565b90604435606435926001600160401b0384116101c757366023850112156101c7576103fc61040e9436906024816004013591016118a1565b92610408838383611aca565b336120f3565b005b346101c7576101003660031901126101c75761042a6116f8565b6024356001600160401b0381116101c7576104499036906004016118d8565b60443560ff81168091036101c7576064356001600160401b0381116101c7576104769036906004016118d8565b926084359361ffff85168095036101c75760a4359460ff86168096036101c75760c435958615158097036101c75760e4356001600160401b0381116101c7576104c39036906004016118d8565b966104cc61209c565b865115610e355785151580610e2a575b15610df057835115610dab5781151580610da0575b15610d5b57875115610d1657600c54956000198714610d005760018701600c556040519061051e8261184a565b888252602082019081526040820190868252606083019586526080830194855260a0830193845288600052600d602052604060002092518051906001600160401b03821161090557819061057286546118f6565b601f8111610cad575b50602090601f8311600114610c4857600092610c3d575b50508160011b916000199060031b1c19161783555b60ff6001840191511660ff198254161790556002820190518051906001600160401b038211610905576105da83546118f6565b601f8111610bf5575b50602090601f8311600114610b885791806003949261ffff9694600092610b7d575b50508160011b9160001990861b1c19161790555b0193511663ff00000062ff00008554945160101b169251151560181b169263ffffffff191617171790556020946040516106538782611865565b600081526001600160a01b038416938415610b675760008681526002895260408120546001600160a01b031680158015929083610b33575b88825260038c526040808320805460010190558a835260028d52822080546001600160a01b0319168a1790558989847fddf252ad1be2c89b69c2b068fc378daa952ba7f163c4a11628f55a4df523b3ef8580a415610aba57600954898252600a8c52806040832055600160401b811015610aa6578961071382600161072c9401600955611f76565b90919082549060031b91821b91600019901b1916179055565b878203610a56575b5050610a40573b61091b575b5083600052600686526040600020908051906001600160401b0382116109055761076a83546118f6565b601f81116108bf575b508790601f831160011461082d579361080a9383889994610817947fc0ca6965454d29b3856647a7702778be706433923b1119a5dc89950b41a8824398600092610822575b50508160011b916000199060031b1c19161790555b7ff8e1a15aba9398e019f0b49df1a4fde98ee17ae345cb5f6b5e2c27f5033e8ce789604051898152a16040519384936040855260408501906116b9565b908382038a8501526116b9565b0390a3604051908152f35b015190508c806107b8565b90601f1983169184600052896000209260005b8b8282106108a957505084610817947fc0ca6965454d29b3856647a7702778be706433923b1119a5dc89950b41a88243989461080a98948c9d9860019510610890575b505050811b0190556107cd565b015160001960f88460031b161c191690558c8080610883565b6001859682939686015181550195019301610840565b8360005288600020601f840160051c8101918a85106108fb575b601f0160051c01905b8181106108ef5750610773565b600081556001016108e2565b90915081906108d9565b634e487b7160e01b600052604160045260246000fd5b8661095a91604098979695985180938192630a85bd0160e11b8352336004840152600060248401528860448401526080606484015260848301906116b9565b038160008b5af180916000916109fb575b50906109c25786863d156109bb573d61098381611886565b906109916040519283611865565b81523d60008383013e5b805191826109b85783633250574960e11b60005260045260246000fd5b01fd5b606061099b565b949593949293926001600160e01b03191663757a42ff60e11b016109e65786610740565b82633250574960e11b60005260045260246000fd5b8781813d8311610a39575b610a108183611865565b81010312610a355751906001600160e01b031982168203610a3257508861096b565b80fd5b5080fd5b503d610a06565b6339e3563760e11b600052600060045260246000fd5b610a5f84611fc7565b600019810191908211610a925780896040925260078d528181208382528d528a828220558a815260088d5220558a610734565b634e487b7160e01b81526011600452602490fd5b634e487b7160e01b82526041600452602482fd5b81881461072c57610aca82611fc7565b89825260088c5260408220549083835260078d5260408320918d828203610b0a575b50508a835260088d5282604081205582528b5280604081205561072c565b600890838652848152604086205483875285825280604088205586525260408420558d8d610aec565b60008a815260046020526040902080546001600160a01b031916905582825260038c5260408220805460001901905561068b565b633250574960e11b600052600060045260246000fd5b015190508e80610605565b90601f1983169184600052816000209260005b818110610bdd575092600192859261ffff98966003989610610bc5575b505050811b019055610619565b015160001983881b60f8161c191690558e8080610bb8565b92936020600181928786015181550195019301610b9b565b836000526020600020601f840160051c81019160208510610c33575b601f0160051c01905b818110610c2757506105e3565b60008155600101610c1a565b9091508190610c11565b015190508d80610592565b60008781528281209350601f198516905b818110610c955750908460019594939210610c7c575b505050811b0183556105a7565b015160001960f88460031b161c191690558d8080610c6f565b92936020600181928786015181550195019301610c59565b909150856000526020600020601f840160051c81019160208510610cf6575b90601f859493920160051c01905b818110610ce7575061057b565b60008155849350600101610cda565b9091508190610ccc565b634e487b7160e01b600052601160045260246000fd5b60405162461bcd60e51b815260206004820152601860248201527f49504653205552492063616e6e6f7420626520656d70747900000000000000006044820152606490fd5b60405162461bcd60e51b815260206004820152601e60248201527f526172697479206d757374206265206265747765656e203120616e64203500006044820152606490fd5b5060058211156104f1565b60405162461bcd60e51b815260206004820152601c60248201527f506f6b656d6f6e20747970652063616e6e6f7420626520656d707479000000006044820152606490fd5b60405162461bcd60e51b815260206004820152601260248201527124b73b30b634b21033b2b732b930ba34b7b760711b6044820152606490fd5b5060098611156104dc565b60405162461bcd60e51b815260206004820152601c60248201527f506f6b656d6f6e206e616d652063616e6e6f7420626520656d707479000000006044820152606490fd5b346101c75760403660031901126101c757610e936116f8565b602435908115158092036101c7576001600160a01b0316908115610f0657336000526005602052604060002082600052602052604060002060ff1981541660ff83161790556040519081527f17307eab39ab6107e8899845ad3d59bd9653f200f220920489ca2b5937696c3160203392a3005b50630b61174360e31b60005260045260246000fd5b346101c75760003660031901126101c7576040516000600154610f3d816118f6565b8084529060018116908115610fc45750600114610f65575b6102d4836102f781850382611865565b600160009081527fb10e2d527612073b26eecdfd717e6a320cf44b4afac2b0732d9fcbe2b7fa0cf6939250905b808210610faa575090915081016020016102f7610f55565b919260018160209254838588010152019101909291610f92565b60ff191660208086019190915291151560051b840190910191506102f79050610f55565b346101c75760003660031901126101c757600b546040516001600160a01b039091168152602090f35b346101c75760203660031901126101c7576004356001600160401b0381116101c757366023820112156101c7578060040135906001600160401b0382116101c7576024810190602436918460051b0101116101c75761106f82611a50565b9160005b81811061109057604051602080825281906102d4908201876117b7565b806110aa6102506110a46001948688611ffd565b356120c5565b6110b5818486611ffd565b35600052600d602052604060002060ff6003604051926110d48461184a565b6110dd81611930565b845282868201541660208501526110f660028201611930565b6040850152015461ffff81166060840152818160101c16608084015260181c16151560a08201526111278287611aa0565b526111328186611aa0565b5001611073565b346101c75760003660031901126101c75761115261209c565b600b80546001600160a01b031981169091556000906001600160a01b03167f8be0079c531659141344cd1fd0a4f28419497f9722a3daafe3b4186f6b6457e08280a3005b346101c75760203660031901126101c75760206111b96111b46116f8565b611fc7565b604051908152f35b346101c75760203660031901126101c75760206111df600435612065565b6040516001600160a01b039091168152f35b346101c75760203660031901126101c75760206111b9600435611f91565b346101c75761040e61122036611810565b9060405192611230602085611865565b60008452610408838383611aca565b346101c75760403660031901126101c75760206111b961125d6116f8565b60243590611f22565b346101c75760403660031901126101c757611285602435600435611d8d565b61129d60409392935192606084526060840190611724565b82810360208401526020808551928381520194019060005b8181106112d05784806102d4888783820360408501526117b7565b82516001600160a01b03168652602095860195909201916001016112b5565b346101c75761040e61130036611810565b91611aca565b346101c75760203660031901126101c75761131f6116f8565b61132881611fc7565b611331816119eb565b9061133b81611a50565b9260005b82811061137057611362846102d487604051938493604085526040850190611724565b9083820360208501526117b7565b8061137d60019284611f22565b806113888388611aa0565b52600052600d602052604060002060ff6003604051926113a78461184a565b6113b081611930565b845282868201541660208501526113c960028201611930565b6040850152015461ffff81166060840152818160101c16608084015260181c16151560a08201526113fa8288611aa0565b526114058187611aa0565b500161133f565b346101c75760003660031901126101c7576020600954604051908152f35b346101c75760003660031901126101c7576020600c54604051908152f35b346101c75760403660031901126101c7576114616116f8565b60243561146d81612065565b33151580611524575b806114f6575b6114e15781906001600160a01b0384811691167f8c5be1e5ebec7d5bd14f71427d1e84f3dd0314c0f7b2291e5b200ac8c7c3b925600080a4600090815260046020526040902080546001600160a01b0319166001600160a01b03909216919091179055005b63a9fbf51f60e01b6000523360045260246000fd5b506001600160a01b038116600090815260056020908152604080832033845290915290205460ff161561147c565b506001600160a01b038116331415611476565b346101c75760203660031901126101c75760043561155481612065565b506000526004602052602060018060a01b0360406000205416604051908152f35b346101c75760003660031901126101c75760405160008054611596816118f6565b8084529060018116908115610fc457506001146115bd576102d4836102f781850382611865565b60008080527f290decd9548b62a8d60345a988386fc84ba6bc95484008f6362f93160ef3e563939250905b808210611600575090915081016020016102f7610f55565b9192600181602092548385880101520191019092916115e8565b346101c75760203660031901126101c7576004359063ffffffff60e01b82168092036101c75760209163780e9d6360e01b811490811561165c575b5015158152f35b632483248360e11b811491508115611676575b5083611655565b6380ac58cd60e01b8114915081156116a8575b8115611697575b508361166f565b6301ffc9a760e01b14905083611690565b635b5e139f60e01b81149150611689565b919082518082526020808301940160005b8281106116e8575050600081602094950152601f8019910116010190565b81810151868201526020016116ca565b600435906001600160a01b03821682036101c757565b602435906001600160a01b03821682036101c757565b906020808351928381520192019060005b8181106117425750505090565b8251845260209384019390920191600101611735565b9060a080611791611772855160c0865260c08601906116b9565b60ff6020870151166020860152604086015185820360408701526116b9565b9361ffff606082015116606085015260ff60808201511660808501520151151591015290565b9080602083519182815201916020808360051b8301019401926000915b8383106117e357505050505090565b9091929394602080611801600193601f198682030187528951611758565b970193019301919392906117d4565b60609060031901126101c7576004356001600160a01b03811681036101c757906024356001600160a01b03811681036101c7579060443590565b60c081019081106001600160401b0382111761090557604052565b90601f801991011681019081106001600160401b0382111761090557604052565b6001600160401b03811161090557601f01601f191660200190565b9291926118ad82611886565b916118bb6040519384611865565b8294818452818301116101c7578281602093846000960137010152565b9080601f830112156101c7578160206118f3933591016118a1565b90565b90600182811c92168015611926575b602083101461191057565b634e487b7160e01b600052602260045260246000fd5b91607f1691611905565b9060405191826000825492611944846118f6565b80845293600181169081156119b2575060011461196b575b5061196992500383611865565b565b90506000929192526020600020906000915b818310611996575050906020611969928201013861195c565b602091935080600191548385890101520191019091849261197d565b90506020925061196994915060ff191682840152151560051b8201013861195c565b6001600160401b0381116109055760051b60200190565b906119f5826119d4565b611a026040519182611865565b8281528092611a13601f19916119d4565b0190602036910137565b60405190611a2a8261184a565b600060a08360608152826020820152606060408201528260608201528260808201520152565b90611a5a826119d4565b611a676040519182611865565b8281528092611a78601f19916119d4565b019060005b828110611a8957505050565b602090611a94611a1d565b82828501015201611a7d565b8051821015611ab45760209160051b010190565b634e487b7160e01b600052603260045260246000fd5b9091906001600160a01b0383168015610b67576000838152600260205260408120546001600160a01b03169433151580611cf1575b5085158015611cbc575b83835260036020526040832060018154019055858352600260205260408320846bffffffffffffffffffffffff60a01b8254161790558584887fddf252ad1be2c89b69c2b068fc378daa952ba7f163c4a11628f55a4df523b3ef8680a415611c3f57600954858352600a602052806040842055600160401b811015611c2b5785610713826001611b9c9401600955611f76565b828603611bd6575b5050506001600160a01b0316808303611bbc57505050565b6364283d7b60e01b60005260045260245260445260646000fd5b611bdf90611fc7565b600019810192908311611c17579060409181526007602052818120838252602052848282205584815260086020522055388080611ba4565b634e487b7160e01b82526011600452602482fd5b634e487b7160e01b83526041600452602483fd5b858314611b9c57611c4f86611fc7565b858352600860205260408320549087845260076020526040842091818103611c91575b5086845260086020528360408120558352602052816040812055611b9c565b8185528260205260408520548186528360205280604087205585526008602052604085205538611c72565b600086815260046020526040902080546001600160a01b03191690558683526003602052604083208054600019019055611b09565b80611d31575b15611d025738611aff565b848287611d1b57602491637e27328960e01b8252600452fd5b60449163177e802f60e01b825233600452602452fd5b503386148015611d5f575b80611cf75750848252600460205260408220546001600160a01b03163314611cf7565b5085825260056020908152604080842033855290915282205460ff16611d3c565b91908201809211610d0057565b906009549081831015611eb05781611da58285611d80565b1115611ea85750818103908111610d0057915b611dc1836119eb565b611dca846119eb565b93611dd481611a50565b9360005b828110611de757505050929190565b80611dfc611df760019385611d80565b611f91565b80611e078388611aa0565b52611e1181612065565b611e1b838b611aa0565b90848060a01b03169052600052600d602052604060002060ff600360405192611e438461184a565b611e4c81611930565b84528286820154166020850152611e6560028201611930565b6040850152015461ffff81166060840152818160101c16608084015260181c16151560a0820152611e968289611aa0565b52611ea18188611aa0565b5001611dd8565b905091611db8565b505050602060405191611ec38284611865565b60008352600036813760405192611eda8385611865565b600084526000368137604051926000611ef38286611865565b8452601f19810160005b818110611f0c57505050929190565b8290611f16611a1d565b82828901015201611efd565b611f2b81611fc7565b821015611f575760018060a01b0316600052600760205260406000209060005260205260406000205490565b63295f44f760e21b60005260018060a01b031660045260245260446000fd5b600954811015611ab457600960005260206000200190600090565b600954811015611fae57611fa490611f76565b90549060031b1c90565b63295f44f760e21b600052600060045260245260446000fd5b6001600160a01b03168015611fe757600052600360205260406000205490565b6322718ad960e21b600052600060045260246000fd5b9190811015611ab45760051b0190565b1561201457565b60405162461bcd60e51b8152602060048201526024808201527f506f6b656d6f6e3a20717565727920666f72206e6f6e6578697374656e74207460448201526337b5b2b760e11b6064820152608490fd5b6000818152600260205260409020546001600160a01b0316908115612088575090565b637e27328960e01b60005260045260246000fd5b600b546001600160a01b031633036120b057565b63118cdaa760e01b6000523360045260246000fd5b600c54811090816120d4575090565b6000908152600260205260409020546001600160a01b03161515919050565b823b612101575b5050505050565b604051630a85bd0160e11b81526001600160a01b03918216600482015291811660248301526044820193909352608060648201529116916020908290819061214d9060848301906116b9565b03816000865af180916000916121ed575b50906121b757503d156121b0573d61217581611886565b906121836040519283611865565b81523d6000602083013e5b805190816121ab5782633250574960e11b60005260045260246000fd5b602001fd5b606061218e565b6001600160e01b03191663757a42ff60e11b016121d9575038808080806120fa565b633250574960e11b60005260045260246000fd5b6020813d602011612228575b8161220660209383611865565b81010312610a355751906001600160e01b031982168203610a3257503861215e565b3d91506121f9565b61223981612065565b50600052600660205261224f6040600020611930565b600060405161225f602082611865565b529056fea26469706673582212207167bfe948d1d497fd22cc405d97ac7df273cc37876f637a9761a45e9b623fc564736f6c634300081c0033",
  "linkReferences": {},
  "deployedLinkReferences": {}
}