{
  "_format": "hh-sol-artifact-1",
  "contractName": "Trading",
  "sourceName": "contracts/Trading.sol",
  "abi": [
    {
      "inputs": [
        {
          "internalType": "address",
          "name": "initialAdmin",
          "type": "address"
        },
        {
          "internalType": "address",
          "name": "initialFeeRecipient",
          "type": "address"
        }
      ],
      "stateMutability": "nonpayable",
      "type": "constructor"
    },
    {
      "inputs": [],
      "name": "AccessControlBadConfirmation",
      "type": "error"
    },
    {
      "inputs": [
        {
          "internalType": "address",
          "name": "account",
          "type": "address"
        },
        {
          "internalType": "bytes32",
          "name": "neededRole",
          "type": "bytes32"
        }
      ],
      "name": "AccessControlUnauthorizedAccount",
      "type": "error"
    },
    {
      "inputs": [],
      "name": "EnforcedPause",
      "type": "error"
    },
    {
      "inputs": [],
      "name": "ExpectedPause",
      "type": "error"
    },
    {
      "inputs": [],
      "name": "ReentrancyGuardReentrantCall",
      "type": "error"
    },
    {
      "anonymous": false,
      "inputs": [
        {
          "indexed": true,
          "internalType": "address",
          "name": "bidder",
          "type": "address"
        },
        {
          "indexed": true,
          "internalType": "bytes32",
          "name": "commitmentHash",
          "type": "bytes32"
        }
      ],
      "name": "BidCommitted",
      "type": "event"
    },
    {
      "anonymous": false,
      "inputs": [
        {
          "indexed": true,
          "internalType": "uint256",
          "name": "listingId",
          "type": "uint256"
        },
        {
          "indexed": true,
          "internalType": "address",
          "name": "bidder",
          "type": "address"
        },
        {
          "indexed": false,
          "internalType": "uint256",
          "name": "amount",
          "type": "uint256"
        }
      ],
      "name": "BidPlaced",
      "type": "event"
    },
    {
      "anonymous": false,
      "inputs": [
        {
          "indexed": true,
          "internalType": "uint256",
          "name": "listingId",
          "type": "uint256"
        },
        {
          "indexed": true,
          "internalType": "address",
          "name": "bidder",
          "type": "address"
        },
        {
          "indexed": false,
          "internalType": "uint256",
          "name": "amount",
          "type": "uint256"
        }
      ],
      "name": "BidRevealed",
      "type": "event"
    },
    {
      "anonymous": false,
      "inputs": [
        {
          "indexed": true,
          "internalType": "address",
          "name": "nftContract",
          "type": "address"
        },
        {
          "indexed": false,
          "internalType": "uint256",
          "name": "tokenId",
          "type": "uint256"
        },
        {
          "indexed": false,
          "internalType": "address",
          "name": "recipient",
          "type": "address"
        }
      ],
      "name": "EmergencyWithdrawal",
      "type": "event"
    },
    {
      "anonymous": false,
      "inputs": [
        {
          "indexed": false,
          "internalType": "uint256",
          "name": "oldFee",
          "type": "uint256"
        },
        {
          "indexed": false,
          "internalType": "uint256",
          "name": "newFee",
          "type": "uint256"
        }
      ],
      "name": "FeePercentageChanged",
      "type": "event"
    },
    {
      "anonymous": false,
      "inputs": [
        {
          "indexed": false,
          "internalType": "address",
          "name": "oldRecipient",
          "type": "address"
        },
        {
          "indexed": false,
          "internalType": "address",
          "name": "newRecipient",
          "type": "address"
        }
      ],
      "name": "FeeRecipientChanged",
      "type": "event"
    },
    {
      "anonymous": false,
      "inputs": [
        {
          "indexed": true,
          "internalType": "uint256",
          "name": "listingId",
          "type": "uint256"
        }
      ],
      "name": "ListingCancelled",
      "type": "event"
    },
    {
      "anonymous": false,
      "inputs": [
        {
          "indexed": true,
          "internalType": "uint256",
          "name": "listingId",
          "type": "uint256"
        },
        {
          "indexed": true,
          "internalType": "address",
          "name": "seller",
          "type": "address"
        },
        {
          "indexed": true,
          "internalType": "address",
          "name": "nftContract",
          "type": "address"
        },
        {
          "indexed": false,
          "internalType": "uint256",
          "name": "tokenId",
          "type": "uint256"
        },
        {
          "indexed": false,
          "internalType": "uint256",
          "name": "price",
          "type": "uint256"
        },
        {
          "indexed": false,
          "internalType": "enum Trading.SaleType",
          "name": "saleType",
          "type": "uint8"
        }
      ],
      "name": "ListingCreated",
      "type": "event"
    },
    {
      "anonymous": false,
      "inputs": [
        {
          "indexed": true,
          "internalType": "uint256",
          "name": "listingId",
          "type": "uint256"
        },
        {
          "indexed": true,
          "internalType": "address",
          "name": "buyer",
          "type": "address"
        },
        {
          "indexed": false,
          "internalType": "uint256",
          "name": "price",
          "type": "uint256"
        }
      ],
      "name": "ListingSold",
      "type": "event"
    },
    {
      "anonymous": false,
      "inputs": [
        {
          "indexed": false,
          "internalType": "address",
          "name": "account",
          "type": "address"
        }
      ],
      "name": "Paused",
      "type": "event"
    },
    {
      "anonymous": false,
      "inputs": [
        {
          "indexed": true,
          "internalType": "bytes32",
          "name": "role",
          "type": "bytes32"
        },
        {
          "indexed": true,
          "internalType": "bytes32",
          "name": "previousAdminRole",
          "type": "bytes32"
        },
        {
          "indexed": true,
          "internalType": "bytes32",
          "name": "newAdminRole",
          "type": "bytes32"
        }
      ],
      "name": "RoleAdminChanged",
      "type": "event"
    },
    {
      "anonymous": false,
      "inputs": [
        {
          "indexed": true,
          "internalType": "bytes32",
          "name": "role",
          "type": "bytes32"
        },
        {
          "indexed": true,
          "internalType": "address",
          "name": "account",
          "type": "address"
        },
        {
          "indexed": true,
          "internalType": "address",
          "name": "sender",
          "type": "address"
        }
      ],
      "name": "RoleGranted",
      "type": "event"
    },
    {
      "anonymous": false,
      "inputs": [
        {
          "indexed": true,
          "internalType": "bytes32",
          "name": "role",
          "type": "bytes32"
        },
        {
          "indexed": true,
          "internalType": "address",
          "name": "account",
          "type": "address"
        },
        {
          "indexed": true,
          "internalType": "address",
          "name": "sender",
          "type": "address"
        }
      ],
      "name": "RoleRevoked",
      "type": "event"
    },
    {
      "anonymous": false,
      "inputs": [
        {
          "indexed": false,
          "internalType": "address",
          "name": "account",
          "type": "address"
        }
      ],
      "name": "Unpaused",
      "type": "event"
    },
    {
      "anonymous": false,
      "inputs": [
        {
          "indexed": true,
          "internalType": "address",
          "name": "recipient",
          "type": "address"
        },
        {
          "indexed": false,
          "internalType": "uint256",
          "name": "amount",
          "type": "uint256"
        }
      ],
      "name": "WithdrawalProcessed",
      "type": "event"
    },
    {
      "inputs": [],
      "name": "ADMIN_ROLE",
      "outputs": [
        {
          "internalType": "bytes32",
          "name": "",
          "type": "bytes32"
        }
      ],
      "stateMutability": "view",
      "type": "function"
    },
    {
      "inputs": [],
      "name": "COMMIT_REVEAL_WINDOW",
      "outputs": [
        {
          "internalType": "uint256",
          "name": "",
          "type": "uint256"
        }
      ],
      "stateMutability": "view",
      "type": "function"
    },
    {
      "inputs": [],
      "name": "DEFAULT_ADMIN_ROLE",
      "outputs": [
        {
          "internalType": "bytes32",
          "name": "",
          "type": "bytes32"
        }
      ],
      "stateMutability": "view",
      "type": "function"
    },
    {
      "inputs": [],
      "name": "OPERATOR_ROLE",
      "outputs": [
        {
          "internalType": "bytes32",
          "name": "",
          "type": "bytes32"
        }
      ],
      "stateMutability": "view",
      "type": "function"
    },
    {
      "inputs": [],
      "name": "_nextListingId",
      "outputs": [
        {
          "internalType": "uint256",
          "name": "",
          "type": "uint256"
        }
      ],
      "stateMutability": "view",
      "type": "function"
    },
    {
      "inputs": [
        {
          "internalType": "uint256",
          "name": "listingId",
          "type": "uint256"
        }
      ],
      "name": "buyNow",
      "outputs": [],
      "stateMutability": "payable",
      "type": "function"
    },
    {
      "inputs": [
        {
          "internalType": "uint256",
          "name": "listingId",
          "type": "uint256"
        }
      ],
      "name": "cancelListing",
      "outputs": [],
      "stateMutability": "nonpayable",
      "type": "function"
    },
    {
      "inputs": [
        {
          "internalType": "bytes32",
          "name": "commitmentHash",
          "type": "bytes32"
        }
      ],
      "name": "commitBid",
      "outputs": [],
      "stateMutability": "nonpayable",
      "type": "function"
    },
    {
      "inputs": [
        {
          "internalType": "bytes32",
          "name": "",
          "type": "bytes32"
        }
      ],
      "name": "commitTimestamps",
      "outputs": [
        {
          "internalType": "uint256",
          "name": "",
          "type": "uint256"
        }
      ],
      "stateMutability": "view",
      "type": "function"
    },
    {
      "inputs": [
        {
          "internalType": "bytes32",
          "name": "",
          "type": "bytes32"
        }
      ],
      "name": "commitments",
      "outputs": [
        {
          "internalType": "bool",
          "name": "",
          "type": "bool"
        }
      ],
      "stateMutability": "view",
      "type": "function"
    },
    {
      "inputs": [
        {
          "internalType": "address",
          "name": "nftContract",
          "type": "address"
        },
        {
          "internalType": "uint256",
          "name": "tokenId",
          "type": "uint256"
        },
        {
          "internalType": "uint256",
          "name": "startingPrice",
          "type": "uint256"
        },
        {
          "internalType": "uint256",
          "name": "endPrice",
          "type": "uint256"
        },
        {
          "internalType": "uint256",
          "name": "duration",
          "type": "uint256"
        }
      ],
      "name": "createDutchAuction",
      "outputs": [],
      "stateMutability": "nonpayable",
      "type": "function"
    },
    {
      "inputs": [
        {
          "internalType": "address",
          "name": "nftContract",
          "type": "address"
        },
        {
          "internalType": "uint256",
          "name": "tokenId",
          "type": "uint256"
        },
        {
          "internalType": "uint256",
          "name": "startingPrice",
          "type": "uint256"
        },
        {
          "internalType": "uint256",
          "name": "duration",
          "type": "uint256"
        }
      ],
      "name": "createEnglishAuction",
      "outputs": [],
      "stateMutability": "nonpayable",
      "type": "function"
    },
    {
      "inputs": [
        {
          "internalType": "address",
          "name": "nftContract",
          "type": "address"
        },
        {
          "internalType": "uint256",
          "name": "tokenId",
          "type": "uint256"
        },
        {
          "internalType": "uint256",
          "name": "price",
          "type": "uint256"
        },
        {
          "internalType": "uint256",
          "name": "duration",
          "type": "uint256"
        }
      ],
      "name": "createFixedPriceListing",
      "outputs": [],
      "stateMutability": "nonpayable",
      "type": "function"
    },
    {
      "inputs": [
        {
          "internalType": "address",
          "name": "nftContract",
          "type": "address"
        },
        {
          "internalType": "uint256",
          "name": "tokenId",
          "type": "uint256"
        },
        {
          "internalType": "address",
          "name": "recipient",
          "type": "address"
        }
      ],
      "name": "emergencyWithdrawNFT",
      "outputs": [],
      "stateMutability": "nonpayable",
      "type": "function"
    },
    {
      "inputs": [],
      "name": "feeRecipient",
      "outputs": [
        {
          "internalType": "address",
          "name": "",
          "type": "address"
        }
      ],
      "stateMutability": "view",
      "type": "function"
    },
    {
      "inputs": [
        {
          "internalType": "uint256",
          "name": "listingId",
          "type": "uint256"
        }
      ],
      "name": "finalizeAuction",
      "outputs": [],
      "stateMutability": "nonpayable",
      "type": "function"
    },
    {
      "inputs": [
        {
          "internalType": "uint256",
          "name": "listingId",
          "type": "uint256"
        }
      ],
      "name": "getCurrentPrice",
      "outputs": [
        {
          "internalType": "uint256",
          "name": "",
          "type": "uint256"
        }
      ],
      "stateMutability": "view",
      "type": "function"
    },
    {
      "inputs": [
        {
          "internalType": "uint256",
          "name": "listingId",
          "type": "uint256"
        }
      ],
      "name": "getListingDetails",
      "outputs": [
        {
          "internalType": "address",
          "name": "seller",
          "type": "address"
        },
        {
          "internalType": "address",
          "name": "nftContract",
          "type": "address"
        },
        {
          "internalType": "uint256",
          "name": "tokenId",
          "type": "uint256"
        },
        {
          "internalType": "uint256",
          "name": "price",
          "type": "uint256"
        },
        {
          "internalType": "uint256",
          "name": "endPrice",
          "type": "uint256"
        },
        {
          "internalType": "uint256",
          "name": "startTime",
          "type": "uint256"
        },
        {
          "internalType": "uint256",
          "name": "endTime",
          "type": "uint256"
        },
        {
          "internalType": "address",
          "name": "highestBidder",
          "type": "address"
        },
        {
          "internalType": "uint256",
          "name": "highestBid",
          "type": "uint256"
        },
        {
          "internalType": "enum Trading.SaleType",
          "name": "saleType",
          "type": "uint8"
        },
        {
          "internalType": "enum Trading.ListingStatus",
          "name": "status",
          "type": "uint8"
        },
        {
          "internalType": "uint256",
          "name": "currentPrice",
          "type": "uint256"
        }
      ],
      "stateMutability": "view",
      "type": "function"
    },
    {
      "inputs": [
        {
          "internalType": "bytes32",
          "name": "role",
          "type": "bytes32"
        }
      ],
      "name": "getRoleAdmin",
      "outputs": [
        {
          "internalType": "bytes32",
          "name": "",
          "type": "bytes32"
        }
      ],
      "stateMutability": "view",
      "type": "function"
    },
    {
      "inputs": [
        {
          "internalType": "bytes32",
          "name": "role",
          "type": "bytes32"
        },
        {
          "internalType": "address",
          "name": "account",
          "type": "address"
        }
      ],
      "name": "grantRole",
      "outputs": [],
      "stateMutability": "nonpayable",
      "type": "function"
    },
    {
      "inputs": [
        {
          "internalType": "bytes32",
          "name": "role",
          "type": "bytes32"
        },
        {
          "internalType": "address",
          "name": "account",
          "type": "address"
        }
      ],
      "name": "hasRole",
      "outputs": [
        {
          "internalType": "bool",
          "name": "",
          "type": "bool"
        }
      ],
      "stateMutability": "view",
      "type": "function"
    },
    {
      "inputs": [
        {
          "internalType": "uint256",
          "name": "listingId",
          "type": "uint256"
        }
      ],
      "name": "isListingExpired",
      "outputs": [
        {
          "internalType": "bool",
          "name": "",
          "type": "bool"
        }
      ],
      "stateMutability": "view",
      "type": "function"
    },
    {
      "inputs": [
        {
          "internalType": "uint256",
          "name": "",
          "type": "uint256"
        }
      ],
      "name": "listings",
      "outputs": [
        {
          "internalType": "uint256",
          "name": "listingId",
          "type": "uint256"
        },
        {
          "internalType": "address",
          "name": "seller",
          "type": "address"
        },
        {
          "internalType": "address",
          "name": "nftContract",
          "type": "address"
        },
        {
          "internalType": "uint256",
          "name": "tokenId",
          "type": "uint256"
        },
        {
          "internalType": "uint256",
          "name": "price",
          "type": "uint256"
        },
        {
          "internalType": "uint256",
          "name": "endPrice",
          "type": "uint256"
        },
        {
          "internalType": "uint256",
          "name": "startTime",
          "type": "uint256"
        },
        {
          "internalType": "uint256",
          "name": "endTime",
          "type": "uint256"
        },
        {
          "internalType": "address",
          "name": "highestBidder",
          "type": "address"
        },
        {
          "internalType": "uint256",
          "name": "highestBid",
          "type": "uint256"
        },
        {
          "internalType": "enum Trading.SaleType",
          "name": "saleType",
          "type": "uint8"
        },
        {
          "internalType": "enum Trading.ListingStatus",
          "name": "status",
          "type": "uint8"
        }
      ],
      "stateMutability": "view",
      "type": "function"
    },
    {
      "inputs": [
        {
          "internalType": "address",
          "name": "",
          "type": "address"
        },
        {
          "internalType": "address",
          "name": "",
          "type": "address"
        },
        {
          "internalType": "uint256",
          "name": "",
          "type": "uint256"
        },
        {
          "internalType": "bytes",
          "name": "",
          "type": "bytes"
        }
      ],
      "name": "onERC721Received",
      "outputs": [
        {
          "internalType": "bytes4",
          "name": "",
          "type": "bytes4"
        }
      ],
      "stateMutability": "pure",
      "type": "function"
    },
    {
      "inputs": [],
      "name": "pause",
      "outputs": [],
      "stateMutability": "nonpayable",
      "type": "function"
    },
    {
      "inputs": [],
      "name": "paused",
      "outputs": [
        {
          "internalType": "bool",
          "name": "",
          "type": "bool"
        }
      ],
      "stateMutability": "view",
      "type": "function"
    },
    {
      "inputs": [
        {
          "internalType": "address",
          "name": "",
          "type": "address"
        }
      ],
      "name": "pendingWithdrawals",
      "outputs": [
        {
          "internalType": "uint256",
          "name": "",
          "type": "uint256"
        }
      ],
      "stateMutability": "view",
      "type": "function"
    },
    {
      "inputs": [
        {
          "internalType": "uint256",
          "name": "listingId",
          "type": "uint256"
        }
      ],
      "name": "placeBid",
      "outputs": [],
      "stateMutability": "payable",
      "type": "function"
    },
    {
      "inputs": [],
      "name": "platformFeePercentage",
      "outputs": [
        {
          "internalType": "uint256",
          "name": "",
          "type": "uint256"
        }
      ],
      "stateMutability": "view",
      "type": "function"
    },
    {
      "inputs": [
        {
          "internalType": "bytes32",
          "name": "role",
          "type": "bytes32"
        },
        {
          "internalType": "address",
          "name": "callerConfirmation",
          "type": "address"
        }
      ],
      "name": "renounceRole",
      "outputs": [],
      "stateMutability": "nonpayable",
      "type": "function"
    },
    {
      "inputs": [
        {
          "internalType": "uint256",
          "name": "listingId",
          "type": "uint256"
        },
        {
          "internalType": "uint256",
          "name": "bidAmount",
          "type": "uint256"
        },
        {
          "internalType": "uint256",
          "name": "nonce",
          "type": "uint256"
        }
      ],
      "name": "revealBid",
      "outputs": [],
      "stateMutability": "payable",
      "type": "function"
    },
    {
      "inputs": [
        {
          "internalType": "bytes32",
          "name": "role",
          "type": "bytes32"
        },
        {
          "internalType": "address",
          "name": "account",
          "type": "address"
        }
      ],
      "name": "revokeRole",
      "outputs": [],
      "stateMutability": "nonpayable",
      "type": "function"
    },
    {
      "inputs": [
        {
          "internalType": "address",
          "name": "newFeeRecipient",
          "type": "address"
        }
      ],
      "name": "setFeeRecipient",
      "outputs": [],
      "stateMutability": "nonpayable",
      "type": "function"
    },
    {
      "inputs": [
        {
          "internalType": "uint256",
          "name": "newFeePercentage",
          "type": "uint256"
        }
      ],
      "name": "setPlatformFeePercentage",
      "outputs": [],
      "stateMutability": "nonpayable",
      "type": "function"
    },
    {
      "inputs": [
        {
          "internalType": "bytes4",
          "name": "interfaceId",
          "type": "bytes4"
        }
      ],
      "name": "supportsInterface",
      "outputs": [
        {
          "internalType": "bool",
          "name": "",
          "type": "bool"
        }
      ],
      "stateMutability": "view",
      "type": "function"
    },
    {
      "inputs": [],
      "name": "unpause",
      "outputs": [],
      "stateMutability": "nonpayable",
      "type": "function"
    },
    {
      "inputs": [],
      "name": "withdraw",
      "outputs": [],
      "stateMutability": "nonpayable",
      "type": "function"
    }
  ],
  "bytecode": "0x60803461013c57601f61297338819003918201601f19168301916001600160401b0383118484101761014157808492604094855283398101031261013c57610052602061004b83610157565b9201610157565b600160005560646008556001600160a01b038216156100f7576001600160a01b03169081156100b2578061008861008e9261016b565b506101e7565b50600980546001600160a01b03191691909117905560405161269390816102808239f35b60405162461bcd60e51b815260206004820152601560248201527f496e76616c69642066656520726563697069656e7400000000000000000000006044820152606490fd5b60405162461bcd60e51b815260206004820152601560248201527f496e76616c69642061646d696e206164647265737300000000000000000000006044820152606490fd5b600080fd5b634e487b7160e01b600052604160045260246000fd5b51906001600160a01b038216820361013c57565b6001600160a01b0381166000908152600080516020612933833981519152602052604090205460ff166101e1576001600160a01b0316600081815260008051602061293383398151915260205260408120805460ff191660011790553391906000805160206129138339815191528180a4600190565b50600090565b6001600160a01b0381166000908152600080516020612953833981519152602052604090205460ff166101e1576001600160a01b0316600081815260008051602061295383398151915260205260408120805460ff191660011790553391907fa49807205ce4d355092ef5a8a18f56e8913cf4a201fbe287825b095693c21775906000805160206129138339815191529080a460019056fe608080604052600436101561001357600080fd5b600090813560e01c90816301ffc9a714611ee657508063065da69814611bbf57806308a0f32f146119ed57806309dd7df8146119cf5780630d55def5146119b2578063150b7a021461193c578063248a9ca31461190e5780632f2ff15d146118cd578063305a67a81461171257806336568abe146116cd5780633ccfd60b146115d75780633f4ba83a1461156f5780634083a00a14611545578063469048401461151c5780635c975abb146114f957806375b238fc146114be5780638053cfe0146111fa5780638333903e14611166578063839df945146111375780638456cb59146110dd57806386a2cc271461101a57806391d1485414610fce5780639979ef4514610e2c578063a217fddf14610e10578063b1a8129514610cfd578063b50250a314610c90578063bb700c8014610999578063c55d0f5614610972578063cdd78cfc14610954578063d547741f1461090a578063de74e57b14610839578063e74b981b14610781578063e8083863146105c3578063e96ec32614610308578063f3f43703146102cf578063f5b541a6146102945763fb05da2e146101b857600080fd5b34610291576020366003190112610291576101809060406004359182815260046020522061028960018060a01b036001830154169260018060a01b036002840154169260038101546004820154600583015460068401549060078501549260018060a01b0360088701541694610237600a600989015498015498612295565b996040519b8c5260208c015260408b015260608a0152608089015260a088015260c087015260e0860152610100850152610278610120850160ff8316611f9a565b60ff61014085019160081c16611fa7565b610160820152f35b80fd5b503461029157806003193601126102915760206040517f97667070c54ef182b0f5858b034beac1b6f3089aa2d3188bb1e8929f4fa9b9298152f35b5034610291576020366003190112610291576020906040906001600160a01b036102f7611f3b565b168152600583522054604051908152f35b50346102915761031736611f6c565b9290610321612337565b610329612354565b801561057e5761033d610e10851015611fb4565b61034c62278d00851115611ff5565b60035491600019831461056a57600183016003556001600160a01b0316938590853b1561055b57604051632142170760e11b81529082828061039389303360048501612150565b0381838b5af1801561055f5785928491610540575b505042906103b591612288565b604051906103c2826120bb565b82825233602080840191825260408085018b8152606086018b8152608087018a815260a088018a81524260c08a0190815260e08a019889526101008a018c81526101208b018d81526101408c018e81526101608d018f81529d8f526004998a905297909d209a518b55975160018b0180546001600160a01b03199081166001600160a01b0393841617909155955160028c018054881691831691909117905593516003808c01919091559251968a0196909655516005890155935160068801559451600787015592516008860180549094169416939093179091559351600983015551600a9091019281101561052c5760ff801984541691161782555190600482101561051857906104d391612079565b60405192835260208301526104eb6040830185611f9a565b7f8cc29aedd4c438083037f38a9e64688219ad0bcbfdb955144ef79a8dd3d435ad60603393a46001815580f35b634e487b7160e01b87526021600452602487fd5b634e487b7160e01b88526021600452602488fd5b819293509061054e916120ee565b61055b57839082386103a8565b5080fd5b6040513d85823e3d90fd5b634e487b7160e01b86526011600452602486fd5b60405162461bcd60e51b815260206004820152601f60248201527f5072696365206d7573742062652067726561746572207468616e207a65726f006044820152606490fd5b5034610291576020366003190112610291576004356105e0612354565b80825260046020526040822090600a820191825460ff8160081c16600481101561076d579061061160ff9215612172565b16600381101561075957600161062791146121b6565b60078101544211156107145760088101805490939085906001600160a01b03161561067b57506106749360099161010061ff001982541617905560018060a01b0390541691015491612376565b6001815580f35b815461ff00191661030017909155600282015460018301546003909301549194506001600160a01b0390811693509190911690823b1561070f576106d992849283604051809681958294632142170760e11b84523060048501612150565b03925af18015610704576106ef575b5050610674565b816106f9916120ee565b6102915780386106e8565b6040513d84823e3d90fd5b505050fd5b60405162461bcd60e51b815260206004820152601960248201527f41756374696f6e20686173206e6f7420656e64656420796574000000000000006044820152606490fd5b634e487b7160e01b85526021600452602485fd5b634e487b7160e01b86526021600452602486fd5b50346102915760203660031901126102915761079b611f3b565b6107a3612499565b6001600160a01b031680156108025760407f0bc21fe5c3ab742ff1d15b5c4477ffbacf1167e618228078fa625edebe7f331d9160095490806001600160601b0360a01b83161760095582519160018060a01b031682526020820152a180f35b60405162461bcd60e51b815260206004820152600f60248201526e496e76616c6964206164647265737360881b6044820152606490fd5b503461029157602036600319011261029157604061018091600435815260046020522061090881549160018060a01b036001820154169060018060a01b0360028201541660038201546004830154600584015460068501549160078601549360018060a01b0360088801541695600a6009890154980154986040519b8c5260208c015260408b015260608a0152608089015260a088015260c087015260e08601526101008501526101208401526108f7610140840160ff8316611f9a565b60ff61016084019160081c16611fa7565bf35b50346102915760403660031901126102915761095060043561092a611f56565b9061094b61094682600052600260205260016040600020015490565b61250b565b6125d7565b5080f35b50346102915780600319360112610291576020600854604051908152f35b5034610291576020366003190112610291576020610991600435612295565b604051908152f35b506060366003190112610291576024356004356109b4612337565b6109bc612354565b604051602081019082825283604082015260443560608201523360601b6080820152607481526109ed6094826120ee565b519020808452600660205260ff60408520541615610c4b57808452600760205260408420546102588101809111610b49574211610c0e57823403610bbf5780845260066020526040842060ff19815416905583526007602052826040812055808352600460205260408320600a81015460ff8160081c16600481101561076d5790610a7a60ff9215612172565b166003811015610759576001610a9091146121b6565b826007820191610aa383544211156121fb565b600981018054909181610b875780610ac4600460089301545b86101561224e565b019060018060a01b038254169081610b5d575b505080546001600160a01b0319163317905555805461012c90610afb904290612098565b10610b35575b506040519182527f86d2fbc9069d34216ebc65b38ce840528d3f8cac0c86d2aaa7ab6a9db8bc35d360203393a36001815580f35b61012c420190814211610b49575538610b01565b634e487b7160e01b85526011600452602485fd5b610b7390828a52600560205260408a2054612288565b908852600560205260408820553880610ad7565b9091925060698202828104606903610bab5786939291610ac4606460089304610abc565b634e487b7160e01b88526011600452602488fd5b60405162461bcd60e51b815260206004820152602160248201527f5061796d656e7420646f6573206e6f74206d617463682062696420616d6f756e6044820152601d60fa1b6064820152608490fd5b60405162461bcd60e51b815260206004820152601560248201527414995d99585b081dda5b991bddc8195e1c1a5c9959605a1b6044820152606490fd5b60405162461bcd60e51b815260206004820152601960248201527f436f6d6d69746d656e7420646f6573206e6f74206578697374000000000000006044820152606490fd5b503461029157602036600319011261029157600435815260046020526040812060ff600a82015460081c166004811015610ce95760209250159081610cdb575b506040519015158152f35b600791500154421138610cd0565b634e487b7160e01b83526021600452602483fd5b503461029157606036600319011261029157610d17611f3b565b60443590602435906001600160a01b03831690818403610e0c57610d39612499565b8115610dd3576001600160a01b0316928490843b1561055b578184610d74926040519384928392632142170760e11b84523060048501612150565b038183895af1801561070457610dba575b50507f3ab9db27a4cdd8c603a752b62d5fbd93b4b3509fe2596708e9688e42bbac35769160409182519182526020820152a280f35b81610dc4916120ee565b610dcf578338610d85565b8380fd5b60405162461bcd60e51b8152602060048201526011602482015270125b9d985b1a59081c9958da5c1a595b9d607a1b6044820152606490fd5b8480fd5b5034610291578060031936011261029157602090604051908152f35b50602036600319011261029157600435610e44612337565b610e4c612354565b808252600460205260408220600a81015460ff8160081c1660048110156107595790610e7a60ff9215612172565b166003811015610fba576001610e9091146121b6565b6007810190610ea282544211156121fb565b600981018054909181610f895780610ec3600460089301545b34101561224e565b019060018060a01b038254169081610f5f575b505080546001600160a01b03191633179055349055805461012c90610efc904290612098565b10610f37575b50604051903482527f0e54eff26401bf69b81b26f60bd85ef47f5d85275c1d268d84f68d6897431c4760203393a36001815580f35b61012c420190814211610f4b575538610f02565b634e487b7160e01b84526011600452602484fd5b610f759082885260056020526040882054612288565b908652600560205260408620553880610ed6565b60698202828104606903610fa65790610ec3606460089304610ebb565b634e487b7160e01b87526011600452602487fd5b634e487b7160e01b84526021600452602484fd5b5034610291576040366003190112610291576040610fea611f56565b9160043581526002602052209060018060a01b0316600052602052602060ff604060002054166040519015158152f35b503461029157602036600319011261029157600435611037612337565b808252600660205260ff60408320541661109857808252600660205260408220600160ff198254161790558082526007602052426040832055337f4993d1a01dd11fa6de1acf5952a36cf1b3f02f1fa3e764d14aa461230ec02eb08380a380f35b60405162461bcd60e51b815260206004820152601960248201527f436f6d6d69746d656e7420616c726561647920657869737473000000000000006044820152606490fd5b50346102915780600319360112610291576110f6612499565b6110fe612337565b600160ff19815416176001557f62e78cea01bee320cd4e420270b5ea74000d11b0c9f74754ebdbfc544b05a2586020604051338152a180f35b50346102915760203660031901126102915760ff60406020926004358152600684522054166040519015158152f35b503461029157602036600319011261029157600435611183612499565b6103e881116111c65760407f2235d343de14bfe1d7efed850d828da476e76eb894c4831ccfa097efc5a4544491600854908060085582519182526020820152a180f35b60405162461bcd60e51b815260206004820152600c60248201526b08ccaca40e8dede40d0d2ced60a31b6044820152606490fd5b50346102915761120936611f6c565b9290611213612337565b61121b612354565b80156114685761123062015180851015611fb4565b61123f62127500851115611ff5565b60035491600019831461056a57600183016003556001600160a01b0316938590853b1561055b57604051632142170760e11b81529082828061128689303360048501612150565b0381838b5af1801561055f578592849161144d575b505042906112a891612288565b604051906112b5826120bb565b82825260208201903382526040830190898252606084018981526080850188815260a086019088825260c087019242845260e088019485526101008801958a87526101208901978b89526101408a019b60018d526101608b019b818d52815260046020526040902099518a55600160a01b6001900390511660018a0190600160a01b60019003166001600160601b0360a01b825416179055600160a01b600190039051166002890190600160a01b60019003166001600160601b0360a01b825416179055516003880155516004870155516005860155516006850155516007840155600160a01b600190039051166008830190600160a01b60019003166001600160601b0360a01b825416179055516009820155600a019151600381101561052c5760ff801984541691161782555190600482101561051857906113f891612079565b6040519283526020830152600160408301527f8cc29aedd4c438083037f38a9e64688219ad0bcbfdb955144ef79a8dd3d435ad60603393a46001815580f35b634e487b7160e01b600052602160045260246000fd5b819293509061145b916120ee565b61055b578390823861129b565b60405162461bcd60e51b815260206004820152602860248201527f5374617274696e67207072696365206d7573742062652067726561746572207460448201526768616e207a65726f60c01b6064820152608490fd5b503461029157806003193601126102915760206040517fa49807205ce4d355092ef5a8a18f56e8913cf4a201fbe287825b095693c217758152f35b5034610291578060031936011261029157602060ff600154166040519015158152f35b50346102915780600319360112610291576009546040516001600160a01b039091168152602090f35b50346102915760203660031901126102915760406020916004358152600783522054604051908152f35b5034610291578060031936011261029157611588612499565b60015460ff8116156115c85760ff19166001557f5db9ee0a495bf2e6ff9c91a7834c1ba4fdd244a5e8aa4e537bd38aeae4b073aa6020604051338152a180f35b638dfc202b60e01b8252600482fd5b50346102915780600319360112610291576115f0612354565b3381526005602052604081205480156116915733825260056020528160408120558180808084335af1611621612110565b501561165a576040519081527f5abb0fc89def2ee3226cc48f5621ee8e2b45f6dcc7898d2bdb5d480533c32bc060203392a26001815580f35b60405162461bcd60e51b815260206004820152600f60248201526e151c985b9cd9995c8819985a5b1959608a1b6044820152606490fd5b60405162461bcd60e51b81526020600482015260146024820152734e6f2066756e647320746f20776974686472617760601b6044820152606490fd5b5034610291576040366003190112610291576116e7611f56565b336001600160a01b0382160361170357610950906004356125d7565b63334bd91960e11b8252600482fd5b50346102915760203660031901126102915760043561172f612354565b808252600460205260408220600a81019081549060ff8260081c16600481101561076d5761175d9015612035565b6001810180549092906001600160a01b0316330361188f5760ff16600381101561076d57151580611879575b61183457825461ff00191661020017909255600282015490546003929092015484926001600160a01b03928316921690823b15610dcf576117e492849283604051809681958294632142170760e11b84523060048501612150565b03925af180156107045761181f575b50807f411aee90354c51b1b04cd563fcab2617142a9d50da19232d888547c8a1b7fd8a91a26001815580f35b81611829916120ee565b61055b5781386117f3565b60405162461bcd60e51b815260206004820152601f60248201527f43616e6e6f742063616e63656c2061756374696f6e20776974682062696473006044820152606490fd5b5060088101546001600160a01b03161515611789565b60405162461bcd60e51b815260206004820152601660248201527513db9b1e481cd95b1b195c8818d85b8818d85b98d95b60521b6044820152606490fd5b5034610291576040366003190112610291576109506004356118ed611f56565b9061190961094682600052600260205260016040600020015490565b612548565b5034610291576020366003190112610291576020610991600435600052600260205260016040600020015490565b503461029157608036600319011261029157611956611f3b565b5061195f611f56565b5060643567ffffffffffffffff811161055b573660238201121561055b57806004013567ffffffffffffffff81116119ae573691016024011161029157604051630a85bd0160e11b8152602090f35b8280fd5b503461029157806003193601126102915760206040516102588152f35b50346102915780600319360112610291576020600354604051908152f35b50602036600319011261029157600435611a05612337565b611a0d612354565b80825260046020526040822090600a820191825460ff8160081c16600481101561076d5790611a3e60ff9215612035565b166003811015610759578015908115611bb4575b5015611b6f57600701544211611b3457611a6b81612295565b90813410611af85781611a8e91859461010061ff00198254161790553390612376565b803411611a9e575b506001905580f35b8180611aab819334612098565b335af1611ab6612110565b5015611ac3578038611a96565b60405162461bcd60e51b815260206004820152600d60248201526c1499599d5b990819985a5b1959609a1b6044820152606490fd5b60405162461bcd60e51b8152602060048201526014602482015273125b9cdd59999a58da595b9d081c185e5b595b9d60621b6044820152606490fd5b60405162461bcd60e51b8152602060048201526013602482015272131a5cdd1a5b99c81a185cc8195e1c1a5c9959606a1b6044820152606490fd5b60405162461bcd60e51b815260206004820152601a60248201527f4c697374696e67206973206e6f742066697865642070726963650000000000006044820152606490fd5b600291501438611a52565b50346102915760a036600319011261029157611bd9611f3b565b6084359060243590604435606435611bef612337565b611bf7612354565b80821115611e8b578015611e3a57611c13610e10861015611fb4565b611c2262093a80861115611ff5565b600354926000198414610fa657600184016003556001600160a01b031694853b15611e3657604051632142170760e11b8152878180611c6689303360048501612150565b0381838b5af18015611e2b57611e15575b5086918491611c869042612288565b60405191611c93836120bb565b838352602083019133835260408401918a835260608501908a82526080860189815260a0870191825260c087019242845260e088019485526101008801958a87526101208901978b89526101408a019b60028d526101608b019b818d52815260046020526040902099518a55600160a01b6001900390511660018a0190600160a01b60019003166001600160601b0360a01b825416179055600160a01b600190039051166002890190600160a01b60019003166001600160601b0360a01b825416179055516003880155516004870155516005860155516006850155516007840155600160a01b600190039051166008830190600160a01b60019003166001600160601b0360a01b825416179055516009820155600a019151600381101561052c5760ff80198454169116178255519060048210156105185790611dd691612079565b6040519283526020830152600260408301527f8cc29aedd4c438083037f38a9e64688219ad0bcbfdb955144ef79a8dd3d435ad60603393a46001815580f35b96611e2381869394996120ee565b969190611c77565b6040513d8a823e3d90fd5b8680fd5b60405162461bcd60e51b815260206004820152602360248201527f456e64207072696365206d7573742062652067726561746572207468616e207a60448201526265726f60e81b6064820152608490fd5b60405162461bcd60e51b815260206004820152602d60248201527f5374617274696e67207072696365206d7573742062652067726561746572207460448201526c68616e20656e6420707269636560981b6064820152608490fd5b90503461055b57602036600319011261055b5760043563ffffffff60e01b81168091036119ae5760209250637965db0b60e01b8114908115611f2a575b5015158152f35b6301ffc9a760e01b14905038611f23565b600435906001600160a01b0382168203611f5157565b600080fd5b602435906001600160a01b0382168203611f5157565b6080906003190112611f51576004356001600160a01b0381168103611f515790602435906044359060643590565b9060038210156114375752565b9060048210156114375752565b15611fbb57565b60405162461bcd60e51b8152602060048201526012602482015271111d5c985d1a5bdb881d1bdbc81cda1bdc9d60721b6044820152606490fd5b15611ffc57565b60405162461bcd60e51b81526020600482015260116024820152704475726174696f6e20746f6f206c6f6e6760781b6044820152606490fd5b1561203c57565b60405162461bcd60e51b81526020600482015260156024820152744c697374696e67206973206e6f742061637469766560581b6044820152606490fd5b9060048110156114375761ff0082549160081b169061ff001916179055565b919082039182116120a557565b634e487b7160e01b600052601160045260246000fd5b610180810190811067ffffffffffffffff8211176120d857604052565b634e487b7160e01b600052604160045260246000fd5b90601f8019910116810190811067ffffffffffffffff8211176120d857604052565b3d1561214b573d9067ffffffffffffffff82116120d8576040519161213f601f8201601f1916602001846120ee565b82523d6000602084013e565b606090565b6001600160a01b03918216815291166020820152604081019190915260600190565b1561217957565b60405162461bcd60e51b815260206004820152601560248201527441756374696f6e206973206e6f742061637469766560581b6044820152606490fd5b156121bd57565b60405162461bcd60e51b81526020600482015260166024820152752737ba1030b71022b733b634b9b41030bab1ba34b7b760511b6044820152606490fd5b1561220257565b60405162461bcd60e51b8152602060048201526011602482015270105d58dd1a5bdb881a185cc8195b991959607a1b6044820152606490fd5b818102929181159184041417156120a557565b1561225557565b60405162461bcd60e51b815260206004820152600b60248201526a42696420746f6f206c6f7760a81b6044820152606490fd5b919082018092116120a557565b6000526004602052604060002060ff600a820154166003811015611437576002036123305760078101549081421015612327576122fc6122e46122dd60068401548095612098565b9342612098565b6122f76005600485015494015484612098565b61223b565b9180156123115761230e920490612098565b90565b634e487b7160e01b600052601260045260246000fd5b60059150015490565b6004015490565b60ff6001541661234357565b63d93c066560e01b60005260046000fd5b600260005414612365576002600055565b633ee5aeb560e01b60005260046000fd5b9060008281526004602052604081206127106123946008548761223b565b0461239f8187612098565b60018301546001600160a01b03168085526005602052604085205490916123c591612288565b908452600560205260408420556123f360018060a01b03600954169182855260056020526040852054612288565b90835260056020526040832055600360018060a01b03600283015416910154813b156119ae5761243e83928392604051948580948193632142170760e11b83528a3060048501612150565b03925af1801561070457917f8e378317cc1b9c64766fd136e5849da5f702d26a8f8b750115b7422909b2309f9391602093612489575b50506040519485526001600160a01b031693a3565b81612493916120ee565b38612474565b3360009081527fe5ebfa64fca8d502a8e50c1edffd2c31ef4dad5b396e65d9f397fb028f74abc5602052604090205460ff16156124d257565b63e2517d3f60e01b600052336004527fa49807205ce4d355092ef5a8a18f56e8913cf4a201fbe287825b095693c2177560245260446000fd5b600081815260026020908152604080832033845290915290205460ff16156125305750565b63e2517d3f60e01b6000523360045260245260446000fd5b60008181526002602090815260408083206001600160a01b038616845290915290205460ff166125d05760008181526002602090815260408083206001600160a01b0395909516808452949091528120805460ff19166001179055339291907f2f8788117e7eff1d82e926ec794901d17c78024a50270940304540a733656f0d9080a4600190565b5050600090565b60008181526002602090815260408083206001600160a01b038616845290915290205460ff16156125d05760008181526002602090815260408083206001600160a01b0395909516808452949091528120805460ff19169055339291907ff6391f5c32d9c69d2a47ea670b442974b53935d1edc7fd64eb21e047a839171b9080a460019056fea26469706673582212203879daa6c06e59144261a45a1f1477fa0dcb35833a2364bd287d57fc7c1fcee864736f6c634300081c00332f8788117e7eff1d82e926ec794901d17c78024a50270940304540a733656f0dac33ff75c19e70fe83507db0d683fd3465c996598dc972688b7ace676c89077be5ebfa64fca8d502a8e50c1edffd2c31ef4dad5b396e65d9f397fb028f74abc5",
  "linkReferences": {},
  "deployedLinkReferences": {}
}